{
	"project-42/contracts/contract.sol": {
		"OnChainTutoring": {
			"abi": [
				{
					"inputs": [
						{
							"internalType": "address",
							"name": "_paymentToken",
							"type": "address"
						}
					],
					"stateMutability": "nonpayable",
					"type": "constructor"
				},
				{
					"anonymous": false,
					"inputs": [
						{
							"indexed": true,
							"internalType": "address",
							"name": "student",
							"type": "address"
						},
						{
							"indexed": true,
							"internalType": "address",
							"name": "tutor",
							"type": "address"
						},
						{
							"indexed": false,
							"internalType": "uint256",
							"name": "sessionId",
							"type": "uint256"
						},
						{
							"indexed": false,
							"internalType": "uint256",
							"name": "sessionFee",
							"type": "uint256"
						}
					],
					"name": "SessionBooked",
					"type": "event"
				},
				{
					"anonymous": false,
					"inputs": [
						{
							"indexed": false,
							"internalType": "uint256",
							"name": "sessionId",
							"type": "uint256"
						}
					],
					"name": "SessionCompleted",
					"type": "event"
				},
				{
					"anonymous": false,
					"inputs": [
						{
							"indexed": false,
							"internalType": "uint256",
							"name": "sessionId",
							"type": "uint256"
						}
					],
					"name": "SessionRefunded",
					"type": "event"
				},
				{
					"inputs": [
						{
							"internalType": "address",
							"name": "tutor",
							"type": "address"
						},
						{
							"internalType": "uint256",
							"name": "sessionFee",
							"type": "uint256"
						}
					],
					"name": "bookSession",
					"outputs": [],
					"stateMutability": "nonpayable",
					"type": "function"
				},
				{
					"inputs": [
						{
							"internalType": "uint256",
							"name": "sessionId",
							"type": "uint256"
						}
					],
					"name": "completeSession",
					"outputs": [],
					"stateMutability": "nonpayable",
					"type": "function"
				},
				{
					"inputs": [],
					"name": "paymentToken",
					"outputs": [
						{
							"internalType": "contract IERC20",
							"name": "",
							"type": "address"
						}
					],
					"stateMutability": "view",
					"type": "function"
				},
				{
					"inputs": [
						{
							"internalType": "uint256",
							"name": "sessionId",
							"type": "uint256"
						}
					],
					"name": "refundSession",
					"outputs": [],
					"stateMutability": "nonpayable",
					"type": "function"
				},
				{
					"inputs": [],
					"name": "sessionIdCounter",
					"outputs": [
						{
							"internalType": "uint256",
							"name": "",
							"type": "uint256"
						}
					],
					"stateMutability": "view",
					"type": "function"
				},
				{
					"inputs": [
						{
							"internalType": "uint256",
							"name": "",
							"type": "uint256"
						}
					],
					"name": "sessions",
					"outputs": [
						{
							"internalType": "address",
							"name": "tutor",
							"type": "address"
						},
						{
							"internalType": "address",
							"name": "student",
							"type": "address"
						},
						{
							"internalType": "uint256",
							"name": "sessionFee",
							"type": "uint256"
						},
						{
							"internalType": "uint256",
							"name": "deposit",
							"type": "uint256"
						},
						{
							"internalType": "bool",
							"name": "isCompleted",
							"type": "bool"
						},
						{
							"internalType": "bool",
							"name": "isRefunded",
							"type": "bool"
						}
					],
					"stateMutability": "view",
					"type": "function"
				}
			],
			"devdoc": {
				"kind": "dev",
				"methods": {},
				"version": 1
			},
			"evm": {
				"assembly": "    /* \"project-42/contracts/contract.sol\":338:4524  contract OnChainTutoring {... */\n  mstore(0x40, 0x80)\n    /* \"project-42/contracts/contract.sol\":1679:1767  constructor(address _paymentToken) {... */\n  callvalue\n  dup1\n  iszero\n  tag_1\n  jumpi\n  0x00\n  dup1\n  revert\ntag_1:\n  pop\n  mload(0x40)\n  sub(codesize, bytecodeSize)\n  dup1\n  bytecodeSize\n  dup4\n  codecopy\n  dup2\n  dup2\n  add\n  0x40\n  mstore\n  dup2\n  add\n  swap1\n  tag_2\n  swap2\n  swap1\n  tag_3\n  jump\t// in\ntag_2:\n    /* \"project-42/contracts/contract.sol\":1746:1759  _paymentToken */\n  dup1\n    /* \"project-42/contracts/contract.sol\":1724:1736  paymentToken */\n  0x00\n  dup1\n    /* \"project-42/contracts/contract.sol\":1724:1760  paymentToken = IERC20(_paymentToken) */\n  0x0100\n  exp\n  dup2\n  sload\n  dup2\n  0xffffffffffffffffffffffffffffffffffffffff\n  mul\n  not\n  and\n  swap1\n  dup4\n  0xffffffffffffffffffffffffffffffffffffffff\n  and\n  mul\n  or\n  swap1\n  sstore\n  pop\n    /* \"project-42/contracts/contract.sol\":1679:1767  constructor(address _paymentToken) {... */\n  pop\n    /* \"project-42/contracts/contract.sol\":338:4524  contract OnChainTutoring {... */\n  jump(tag_6)\n    /* \"#utility.yul\":88:205   */\ntag_8:\n    /* \"#utility.yul\":197:198   */\n  0x00\n    /* \"#utility.yul\":194:195   */\n  dup1\n    /* \"#utility.yul\":187:199   */\n  revert\n    /* \"#utility.yul\":334:460   */\ntag_10:\n    /* \"#utility.yul\":371:378   */\n  0x00\n    /* \"#utility.yul\":411:453   */\n  0xffffffffffffffffffffffffffffffffffffffff\n    /* \"#utility.yul\":404:409   */\n  dup3\n    /* \"#utility.yul\":400:454   */\n  and\n    /* \"#utility.yul\":389:454   */\n  swap1\n  pop\n    /* \"#utility.yul\":334:460   */\n  swap2\n  swap1\n  pop\n  jump\t// out\n    /* \"#utility.yul\":466:562   */\ntag_11:\n    /* \"#utility.yul\":503:510   */\n  0x00\n    /* \"#utility.yul\":532:556   */\n  tag_20\n    /* \"#utility.yul\":550:555   */\n  dup3\n    /* \"#utility.yul\":532:556   */\n  tag_10\n  jump\t// in\ntag_20:\n    /* \"#utility.yul\":521:556   */\n  swap1\n  pop\n    /* \"#utility.yul\":466:562   */\n  swap2\n  swap1\n  pop\n  jump\t// out\n    /* \"#utility.yul\":568:690   */\ntag_12:\n    /* \"#utility.yul\":641:665   */\n  tag_22\n    /* \"#utility.yul\":659:664   */\n  dup2\n    /* \"#utility.yul\":641:665   */\n  tag_11\n  jump\t// in\ntag_22:\n    /* \"#utility.yul\":634:639   */\n  dup2\n    /* \"#utility.yul\":631:666   */\n  eq\n    /* \"#utility.yul\":621:684   */\n  tag_23\n  jumpi\n    /* \"#utility.yul\":680:681   */\n  0x00\n    /* \"#utility.yul\":677:678   */\n  dup1\n    /* \"#utility.yul\":670:682   */\n  revert\n    /* \"#utility.yul\":621:684   */\ntag_23:\n    /* \"#utility.yul\":568:690   */\n  pop\n  jump\t// out\n    /* \"#utility.yul\":696:839   */\ntag_13:\n    /* \"#utility.yul\":753:758   */\n  0x00\n    /* \"#utility.yul\":784:790   */\n  dup2\n    /* \"#utility.yul\":778:791   */\n  mload\n    /* \"#utility.yul\":769:791   */\n  swap1\n  pop\n    /* \"#utility.yul\":800:833   */\n  tag_25\n    /* \"#utility.yul\":827:832   */\n  dup2\n    /* \"#utility.yul\":800:833   */\n  tag_12\n  jump\t// in\ntag_25:\n    /* \"#utility.yul\":696:839   */\n  swap3\n  swap2\n  pop\n  pop\n  jump\t// out\n    /* \"#utility.yul\":845:1196   */\ntag_3:\n    /* \"#utility.yul\":915:921   */\n  0x00\n    /* \"#utility.yul\":964:966   */\n  0x20\n    /* \"#utility.yul\":952:961   */\n  dup3\n    /* \"#utility.yul\":943:950   */\n  dup5\n    /* \"#utility.yul\":939:962   */\n  sub\n    /* \"#utility.yul\":935:967   */\n  slt\n    /* \"#utility.yul\":932:1051   */\n  iszero\n  tag_27\n  jumpi\n    /* \"#utility.yul\":970:1049   */\n  tag_28\n  tag_8\n  jump\t// in\ntag_28:\n    /* \"#utility.yul\":932:1051   */\ntag_27:\n    /* \"#utility.yul\":1090:1091   */\n  0x00\n    /* \"#utility.yul\":1115:1179   */\n  tag_29\n    /* \"#utility.yul\":1171:1178   */\n  dup5\n    /* \"#utility.yul\":1162:1168   */\n  dup3\n    /* \"#utility.yul\":1151:1160   */\n  dup6\n    /* \"#utility.yul\":1147:1169   */\n  add\n    /* \"#utility.yul\":1115:1179   */\n  tag_13\n  jump\t// in\ntag_29:\n    /* \"#utility.yul\":1105:1179   */\n  swap2\n  pop\n    /* \"#utility.yul\":1061:1189   */\n  pop\n    /* \"#utility.yul\":845:1196   */\n  swap3\n  swap2\n  pop\n  pop\n  jump\t// out\n    /* \"project-42/contracts/contract.sol\":338:4524  contract OnChainTutoring {... */\ntag_6:\n  dataSize(sub_0)\n  dup1\n  dataOffset(sub_0)\n  0x00\n  codecopy\n  0x00\n  return\nstop\n\nsub_0: assembly {\n        /* \"project-42/contracts/contract.sol\":338:4524  contract OnChainTutoring {... */\n      mstore(0x40, 0x80)\n      callvalue\n      dup1\n      iszero\n      tag_1\n      jumpi\n      0x00\n      dup1\n      revert\n    tag_1:\n      pop\n      jumpi(tag_2, lt(calldatasize, 0x04))\n      shr(0xe0, calldataload(0x00))\n      dup1\n      0x01c7aea4\n      eq\n      tag_3\n      jumpi\n      dup1\n      0x1f5754c0\n      eq\n      tag_4\n      jumpi\n      dup1\n      0x3013ce29\n      eq\n      tag_5\n      jumpi\n      dup1\n      0x5a29352d\n      eq\n      tag_6\n      jumpi\n      dup1\n      0x83c4b7a3\n      eq\n      tag_7\n      jumpi\n      dup1\n      0x9b9aee77\n      eq\n      tag_8\n      jumpi\n    tag_2:\n      0x00\n      dup1\n      revert\n        /* \"project-42/contracts/contract.sol\":1816:2853  function bookSession(address tutor, uint256 sessionFee) external {... */\n    tag_3:\n      tag_9\n      0x04\n      dup1\n      calldatasize\n      sub\n      dup2\n      add\n      swap1\n      tag_10\n      swap2\n      swap1\n      tag_11\n      jump\t// in\n    tag_10:\n      tag_12\n      jump\t// in\n    tag_9:\n      stop\n        /* \"project-42/contracts/contract.sol\":2920:3807  function completeSession(uint256 sessionId) external {... */\n    tag_4:\n      tag_13\n      0x04\n      dup1\n      calldatasize\n      sub\n      dup2\n      add\n      swap1\n      tag_14\n      swap2\n      swap1\n      tag_15\n      jump\t// in\n    tag_14:\n      tag_16\n      jump\t// in\n    tag_13:\n      stop\n        /* \"project-42/contracts/contract.sol\":453:479  IERC20 public paymentToken */\n    tag_5:\n      tag_17\n      tag_18\n      jump\t// in\n    tag_17:\n      mload(0x40)\n      tag_19\n      swap2\n      swap1\n      tag_20\n      jump\t// in\n    tag_19:\n      mload(0x40)\n      dup1\n      swap2\n      sub\n      swap1\n      return\n        /* \"project-42/contracts/contract.sol\":1576:1607  uint256 public sessionIdCounter */\n    tag_6:\n      tag_21\n      tag_22\n      jump\t// in\n    tag_21:\n      mload(0x40)\n      tag_23\n      swap2\n      swap1\n      tag_24\n      jump\t// in\n    tag_23:\n      mload(0x40)\n      dup1\n      swap2\n      sub\n      swap1\n      return\n        /* \"project-42/contracts/contract.sol\":1088:1139  mapping(uint256 => TutoringSession) public sessions */\n    tag_7:\n      tag_25\n      0x04\n      dup1\n      calldatasize\n      sub\n      dup2\n      add\n      swap1\n      tag_26\n      swap2\n      swap1\n      tag_15\n      jump\t// in\n    tag_26:\n      tag_27\n      jump\t// in\n    tag_25:\n      mload(0x40)\n      tag_28\n      swap7\n      swap6\n      swap5\n      swap4\n      swap3\n      swap2\n      swap1\n      tag_29\n      jump\t// in\n    tag_28:\n      mload(0x40)\n      dup1\n      swap2\n      sub\n      swap1\n      return\n        /* \"project-42/contracts/contract.sol\":3892:4522  function refundSession(uint256 sessionId) external {... */\n    tag_8:\n      tag_30\n      0x04\n      dup1\n      calldatasize\n      sub\n      dup2\n      add\n      swap1\n      tag_31\n      swap2\n      swap1\n      tag_15\n      jump\t// in\n    tag_31:\n      tag_32\n      jump\t// in\n    tag_30:\n      stop\n        /* \"project-42/contracts/contract.sol\":1816:2853  function bookSession(address tutor, uint256 sessionFee) external {... */\n    tag_12:\n        /* \"project-42/contracts/contract.sol\":1912:1913  0 */\n      0x00\n        /* \"project-42/contracts/contract.sol\":1899:1909  sessionFee */\n      dup2\n        /* \"project-42/contracts/contract.sol\":1899:1913  sessionFee > 0 */\n      gt\n        /* \"project-42/contracts/contract.sol\":1891:1952  require(sessionFee > 0, \"Session fee must be greater than 0\") */\n      tag_34\n      jumpi\n      mload(0x40)\n      0x08c379a000000000000000000000000000000000000000000000000000000000\n      dup2\n      mstore\n      0x04\n      add\n      tag_35\n      swap1\n      tag_36\n      jump\t// in\n    tag_35:\n      mload(0x40)\n      dup1\n      swap2\n      sub\n      swap1\n      revert\n    tag_34:\n        /* \"project-42/contracts/contract.sol\":1979:1989  msg.sender */\n      caller\n        /* \"project-42/contracts/contract.sol\":1970:1989  tutor != msg.sender */\n      0xffffffffffffffffffffffffffffffffffffffff\n      and\n        /* \"project-42/contracts/contract.sol\":1970:1975  tutor */\n      dup3\n        /* \"project-42/contracts/contract.sol\":1970:1989  tutor != msg.sender */\n      0xffffffffffffffffffffffffffffffffffffffff\n      and\n      sub\n        /* \"project-42/contracts/contract.sol\":1962:2033  require(tutor != msg.sender, \"You cannot book a session with yourself\") */\n      tag_37\n      jumpi\n      mload(0x40)\n      0x08c379a000000000000000000000000000000000000000000000000000000000\n      dup2\n      mstore\n      0x04\n      add\n      tag_38\n      swap1\n      tag_39\n      jump\t// in\n    tag_38:\n      mload(0x40)\n      dup1\n      swap2\n      sub\n      swap1\n      revert\n    tag_37:\n        /* \"project-42/contracts/contract.sol\":2109:2124  uint256 deposit */\n      0x00\n        /* \"project-42/contracts/contract.sol\":2140:2141  2 */\n      0x02\n        /* \"project-42/contracts/contract.sol\":2127:2137  sessionFee */\n      dup3\n        /* \"project-42/contracts/contract.sol\":2127:2141  sessionFee / 2 */\n      tag_40\n      swap2\n      swap1\n      tag_41\n      jump\t// in\n    tag_40:\n        /* \"project-42/contracts/contract.sol\":2109:2141  uint256 deposit = sessionFee / 2 */\n      swap1\n      pop\n        /* \"project-42/contracts/contract.sol\":2239:2246  deposit */\n      dup1\n        /* \"project-42/contracts/contract.sol\":2201:2213  paymentToken */\n      0x00\n      dup1\n      sload\n      swap1\n      0x0100\n      exp\n      swap1\n      div\n      0xffffffffffffffffffffffffffffffffffffffff\n      and\n        /* \"project-42/contracts/contract.sol\":2201:2223  paymentToken.balanceOf */\n      0xffffffffffffffffffffffffffffffffffffffff\n      and\n      0x70a08231\n        /* \"project-42/contracts/contract.sol\":2224:2234  msg.sender */\n      caller\n        /* \"project-42/contracts/contract.sol\":2201:2235  paymentToken.balanceOf(msg.sender) */\n      mload(0x40)\n      dup3\n      0xffffffff\n      and\n      0xe0\n      shl\n      dup2\n      mstore\n      0x04\n      add\n      tag_42\n      swap2\n      swap1\n      tag_43\n      jump\t// in\n    tag_42:\n      0x20\n      mload(0x40)\n      dup1\n      dup4\n      sub\n      dup2\n      dup7\n      gas\n      staticcall\n      iszero\n      dup1\n      iszero\n      tag_45\n      jumpi\n      returndatasize\n      0x00\n      dup1\n      returndatacopy\n      revert(0x00, returndatasize)\n    tag_45:\n      pop\n      pop\n      pop\n      pop\n      mload(0x40)\n      returndatasize\n      not(0x1f)\n      0x1f\n      dup3\n      add\n      and\n      dup3\n      add\n      dup1\n      0x40\n      mstore\n      pop\n      dup2\n      add\n      swap1\n      tag_46\n      swap2\n      swap1\n      tag_47\n      jump\t// in\n    tag_46:\n        /* \"project-42/contracts/contract.sol\":2201:2246  paymentToken.balanceOf(msg.sender) >= deposit */\n      lt\n      iszero\n        /* \"project-42/contracts/contract.sol\":2193:2283  require(paymentToken.balanceOf(msg.sender) >= deposit, \"Insufficient balance for deposit\") */\n      tag_48\n      jumpi\n      mload(0x40)\n      0x08c379a000000000000000000000000000000000000000000000000000000000\n      dup2\n      mstore\n      0x04\n      add\n      tag_49\n      swap1\n      tag_50\n      jump\t// in\n    tag_49:\n      mload(0x40)\n      dup1\n      swap2\n      sub\n      swap1\n      revert\n    tag_48:\n        /* \"project-42/contracts/contract.sol\":2293:2305  paymentToken */\n      0x00\n      dup1\n      sload\n      swap1\n      0x0100\n      exp\n      swap1\n      div\n      0xffffffffffffffffffffffffffffffffffffffff\n      and\n        /* \"project-42/contracts/contract.sol\":2293:2314  paymentToken.transfer */\n      0xffffffffffffffffffffffffffffffffffffffff\n      and\n      0xa9059cbb\n        /* \"project-42/contracts/contract.sol\":2323:2327  this */\n      address\n        /* \"project-42/contracts/contract.sol\":2330:2337  deposit */\n      dup4\n        /* \"project-42/contracts/contract.sol\":2293:2338  paymentToken.transfer(address(this), deposit) */\n      mload(0x40)\n      dup4\n      0xffffffff\n      and\n      0xe0\n      shl\n      dup2\n      mstore\n      0x04\n      add\n      tag_51\n      swap3\n      swap2\n      swap1\n      tag_52\n      jump\t// in\n    tag_51:\n      0x20\n      mload(0x40)\n      dup1\n      dup4\n      sub\n      dup2\n      0x00\n      dup8\n      gas\n      call\n      iszero\n      dup1\n      iszero\n      tag_54\n      jumpi\n      returndatasize\n      0x00\n      dup1\n      returndatacopy\n      revert(0x00, returndatasize)\n    tag_54:\n      pop\n      pop\n      pop\n      pop\n      mload(0x40)\n      returndatasize\n      not(0x1f)\n      0x1f\n      dup3\n      add\n      and\n      dup3\n      add\n      dup1\n      0x40\n      mstore\n      pop\n      dup2\n      add\n      swap1\n      tag_55\n      swap2\n      swap1\n      tag_56\n      jump\t// in\n    tag_55:\n      pop\n        /* \"project-42/contracts/contract.sol\":2448:2465  uint256 sessionId */\n      0x00\n        /* \"project-42/contracts/contract.sol\":2468:2484  sessionIdCounter */\n      0x02\n      0x00\n        /* \"project-42/contracts/contract.sol\":2468:2486  sessionIdCounter++ */\n      dup2\n      sload\n      dup1\n      swap3\n      swap2\n      swap1\n      tag_57\n      swap1\n      tag_58\n      jump\t// in\n    tag_57:\n      swap2\n      swap1\n      pop\n      sstore\n        /* \"project-42/contracts/contract.sol\":2448:2486  uint256 sessionId = sessionIdCounter++ */\n      swap1\n      pop\n        /* \"project-42/contracts/contract.sol\":2518:2733  TutoringSession({... */\n      mload(0x40)\n      dup1\n      0xc0\n      add\n      0x40\n      mstore\n      dup1\n        /* \"project-42/contracts/contract.sol\":2555:2560  tutor */\n      dup6\n        /* \"project-42/contracts/contract.sol\":2518:2733  TutoringSession({... */\n      0xffffffffffffffffffffffffffffffffffffffff\n      and\n      dup2\n      mstore\n      0x20\n      add\n        /* \"project-42/contracts/contract.sol\":2583:2593  msg.sender */\n      caller\n        /* \"project-42/contracts/contract.sol\":2518:2733  TutoringSession({... */\n      0xffffffffffffffffffffffffffffffffffffffff\n      and\n      dup2\n      mstore\n      0x20\n      add\n        /* \"project-42/contracts/contract.sol\":2619:2629  sessionFee */\n      dup5\n        /* \"project-42/contracts/contract.sol\":2518:2733  TutoringSession({... */\n      dup2\n      mstore\n      0x20\n      add\n        /* \"project-42/contracts/contract.sol\":2652:2659  deposit */\n      dup4\n        /* \"project-42/contracts/contract.sol\":2518:2733  TutoringSession({... */\n      dup2\n      mstore\n      0x20\n      add\n        /* \"project-42/contracts/contract.sol\":2686:2691  false */\n      0x00\n        /* \"project-42/contracts/contract.sol\":2518:2733  TutoringSession({... */\n      iszero\n      iszero\n      dup2\n      mstore\n      0x20\n      add\n        /* \"project-42/contracts/contract.sol\":2717:2722  false */\n      0x00\n        /* \"project-42/contracts/contract.sol\":2518:2733  TutoringSession({... */\n      iszero\n      iszero\n      dup2\n      mstore\n      pop\n        /* \"project-42/contracts/contract.sol\":2496:2504  sessions */\n      0x01\n        /* \"project-42/contracts/contract.sol\":2496:2515  sessions[sessionId] */\n      0x00\n        /* \"project-42/contracts/contract.sol\":2505:2514  sessionId */\n      dup4\n        /* \"project-42/contracts/contract.sol\":2496:2515  sessions[sessionId] */\n      dup2\n      mstore\n      0x20\n      add\n      swap1\n      dup2\n      mstore\n      0x20\n      add\n      0x00\n      keccak256\n        /* \"project-42/contracts/contract.sol\":2496:2733  sessions[sessionId] = TutoringSession({... */\n      0x00\n      dup3\n      add\n      mload\n      dup2\n      0x00\n      add\n      exp(0x0100, 0x00)\n      dup2\n      sload\n      dup2\n      0xffffffffffffffffffffffffffffffffffffffff\n      mul\n      not\n      and\n      swap1\n      dup4\n      0xffffffffffffffffffffffffffffffffffffffff\n      and\n      mul\n      or\n      swap1\n      sstore\n      pop\n      0x20\n      dup3\n      add\n      mload\n      dup2\n      0x01\n      add\n      exp(0x0100, 0x00)\n      dup2\n      sload\n      dup2\n      0xffffffffffffffffffffffffffffffffffffffff\n      mul\n      not\n      and\n      swap1\n      dup4\n      0xffffffffffffffffffffffffffffffffffffffff\n      and\n      mul\n      or\n      swap1\n      sstore\n      pop\n      0x40\n      dup3\n      add\n      mload\n      dup2\n      0x02\n      add\n      sstore\n      0x60\n      dup3\n      add\n      mload\n      dup2\n      0x03\n      add\n      sstore\n      0x80\n      dup3\n      add\n      mload\n      dup2\n      0x04\n      add\n      exp(0x0100, 0x00)\n      dup2\n      sload\n      dup2\n      0xff\n      mul\n      not\n      and\n      swap1\n      dup4\n      iszero\n      iszero\n      mul\n      or\n      swap1\n      sstore\n      pop\n      0xa0\n      dup3\n      add\n      mload\n      dup2\n      0x04\n      add\n      exp(0x0100, 0x01)\n      dup2\n      sload\n      dup2\n      0xff\n      mul\n      not\n      and\n      swap1\n      dup4\n      iszero\n      iszero\n      mul\n      or\n      swap1\n      sstore\n      pop\n      swap1\n      pop\n      pop\n        /* \"project-42/contracts/contract.sol\":2817:2822  tutor */\n      dup4\n        /* \"project-42/contracts/contract.sol\":2791:2846  SessionBooked(msg.sender, tutor, sessionId, sessionFee) */\n      0xffffffffffffffffffffffffffffffffffffffff\n      and\n        /* \"project-42/contracts/contract.sol\":2805:2815  msg.sender */\n      caller\n        /* \"project-42/contracts/contract.sol\":2791:2846  SessionBooked(msg.sender, tutor, sessionId, sessionFee) */\n      0xffffffffffffffffffffffffffffffffffffffff\n      and\n      0x467d69c5cf78cf9047a33f50b83d44465d0f438ba055fd5b64c7c0e86bc4a994\n        /* \"project-42/contracts/contract.sol\":2824:2833  sessionId */\n      dup4\n        /* \"project-42/contracts/contract.sol\":2835:2845  sessionFee */\n      dup7\n        /* \"project-42/contracts/contract.sol\":2791:2846  SessionBooked(msg.sender, tutor, sessionId, sessionFee) */\n      mload(0x40)\n      tag_59\n      swap3\n      swap2\n      swap1\n      tag_60\n      jump\t// in\n    tag_59:\n      mload(0x40)\n      dup1\n      swap2\n      sub\n      swap1\n      log3\n        /* \"project-42/contracts/contract.sol\":1881:2853  {... */\n      pop\n      pop\n        /* \"project-42/contracts/contract.sol\":1816:2853  function bookSession(address tutor, uint256 sessionFee) external {... */\n      pop\n      pop\n      jump\t// out\n        /* \"project-42/contracts/contract.sol\":2920:3807  function completeSession(uint256 sessionId) external {... */\n    tag_16:\n        /* \"project-42/contracts/contract.sol\":2983:3014  TutoringSession storage session */\n      0x00\n        /* \"project-42/contracts/contract.sol\":3017:3025  sessions */\n      0x01\n        /* \"project-42/contracts/contract.sol\":3017:3036  sessions[sessionId] */\n      0x00\n        /* \"project-42/contracts/contract.sol\":3026:3035  sessionId */\n      dup4\n        /* \"project-42/contracts/contract.sol\":3017:3036  sessions[sessionId] */\n      dup2\n      mstore\n      0x20\n      add\n      swap1\n      dup2\n      mstore\n      0x20\n      add\n      0x00\n      keccak256\n        /* \"project-42/contracts/contract.sol\":2983:3036  TutoringSession storage session = sessions[sessionId] */\n      swap1\n      pop\n        /* \"project-42/contracts/contract.sol\":3130:3140  msg.sender */\n      caller\n        /* \"project-42/contracts/contract.sol\":3113:3140  session.tutor == msg.sender */\n      0xffffffffffffffffffffffffffffffffffffffff\n      and\n        /* \"project-42/contracts/contract.sol\":3113:3120  session */\n      dup2\n        /* \"project-42/contracts/contract.sol\":3113:3126  session.tutor */\n      0x00\n      add\n      0x00\n      swap1\n      sload\n      swap1\n      0x0100\n      exp\n      swap1\n      div\n      0xffffffffffffffffffffffffffffffffffffffff\n      and\n        /* \"project-42/contracts/contract.sol\":3113:3140  session.tutor == msg.sender */\n      0xffffffffffffffffffffffffffffffffffffffff\n      and\n      eq\n        /* \"project-42/contracts/contract.sol\":3105:3184  require(session.tutor == msg.sender, \"Only the tutor can complete the session\") */\n      tag_62\n      jumpi\n      mload(0x40)\n      0x08c379a000000000000000000000000000000000000000000000000000000000\n      dup2\n      mstore\n      0x04\n      add\n      tag_63\n      swap1\n      tag_64\n      jump\t// in\n    tag_63:\n      mload(0x40)\n      dup1\n      swap2\n      sub\n      swap1\n      revert\n    tag_62:\n        /* \"project-42/contracts/contract.sol\":3203:3210  session */\n      dup1\n        /* \"project-42/contracts/contract.sol\":3203:3222  session.isCompleted */\n      0x04\n      add\n      0x00\n      swap1\n      sload\n      swap1\n      0x0100\n      exp\n      swap1\n      div\n      0xff\n      and\n        /* \"project-42/contracts/contract.sol\":3202:3222  !session.isCompleted */\n      iszero\n        /* \"project-42/contracts/contract.sol\":3194:3252  require(!session.isCompleted, \"Session already completed\") */\n      tag_65\n      jumpi\n      mload(0x40)\n      0x08c379a000000000000000000000000000000000000000000000000000000000\n      dup2\n      mstore\n      0x04\n      add\n      tag_66\n      swap1\n      tag_67\n      jump\t// in\n    tag_66:\n      mload(0x40)\n      dup1\n      swap2\n      sub\n      swap1\n      revert\n    tag_65:\n        /* \"project-42/contracts/contract.sol\":3326:3330  true */\n      0x01\n        /* \"project-42/contracts/contract.sol\":3304:3311  session */\n      dup2\n        /* \"project-42/contracts/contract.sol\":3304:3323  session.isCompleted */\n      0x04\n      add\n      0x00\n        /* \"project-42/contracts/contract.sol\":3304:3330  session.isCompleted = true */\n      0x0100\n      exp\n      dup2\n      sload\n      dup2\n      0xff\n      mul\n      not\n      and\n      swap1\n      dup4\n      iszero\n      iszero\n      mul\n      or\n      swap1\n      sstore\n      pop\n        /* \"project-42/contracts/contract.sol\":3408:3428  uint256 totalPayment */\n      0x00\n        /* \"project-42/contracts/contract.sol\":3452:3459  session */\n      dup2\n        /* \"project-42/contracts/contract.sol\":3452:3467  session.deposit */\n      0x03\n      add\n      sload\n        /* \"project-42/contracts/contract.sol\":3431:3438  session */\n      dup3\n        /* \"project-42/contracts/contract.sol\":3431:3449  session.sessionFee */\n      0x02\n      add\n      sload\n        /* \"project-42/contracts/contract.sol\":3431:3467  session.sessionFee - session.deposit */\n      tag_68\n      swap2\n      swap1\n      tag_69\n      jump\t// in\n    tag_68:\n        /* \"project-42/contracts/contract.sol\":3408:3467  uint256 totalPayment = session.sessionFee - session.deposit */\n      swap1\n      pop\n        /* \"project-42/contracts/contract.sol\":3586:3598  totalPayment */\n      dup1\n        /* \"project-42/contracts/contract.sol\":3545:3557  paymentToken */\n      0x00\n      dup1\n      sload\n      swap1\n      0x0100\n      exp\n      swap1\n      div\n      0xffffffffffffffffffffffffffffffffffffffff\n      and\n        /* \"project-42/contracts/contract.sol\":3545:3567  paymentToken.balanceOf */\n      0xffffffffffffffffffffffffffffffffffffffff\n      and\n      0x70a08231\n        /* \"project-42/contracts/contract.sol\":3576:3580  this */\n      address\n        /* \"project-42/contracts/contract.sol\":3545:3582  paymentToken.balanceOf(address(this)) */\n      mload(0x40)\n      dup3\n      0xffffffff\n      and\n      0xe0\n      shl\n      dup2\n      mstore\n      0x04\n      add\n      tag_70\n      swap2\n      swap1\n      tag_43\n      jump\t// in\n    tag_70:\n      0x20\n      mload(0x40)\n      dup1\n      dup4\n      sub\n      dup2\n      dup7\n      gas\n      staticcall\n      iszero\n      dup1\n      iszero\n      tag_72\n      jumpi\n      returndatasize\n      0x00\n      dup1\n      returndatacopy\n      revert(0x00, returndatasize)\n    tag_72:\n      pop\n      pop\n      pop\n      pop\n      mload(0x40)\n      returndatasize\n      not(0x1f)\n      0x1f\n      dup3\n      add\n      and\n      dup3\n      add\n      dup1\n      0x40\n      mstore\n      pop\n      dup2\n      add\n      swap1\n      tag_73\n      swap2\n      swap1\n      tag_47\n      jump\t// in\n    tag_73:\n        /* \"project-42/contracts/contract.sol\":3545:3598  paymentToken.balanceOf(address(this)) >= totalPayment */\n      lt\n      iszero\n        /* \"project-42/contracts/contract.sol\":3537:3632  require(paymentToken.balanceOf(address(this)) >= totalPayment, \"Insufficient contract balance\") */\n      tag_74\n      jumpi\n      mload(0x40)\n      0x08c379a000000000000000000000000000000000000000000000000000000000\n      dup2\n      mstore\n      0x04\n      add\n      tag_75\n      swap1\n      tag_76\n      jump\t// in\n    tag_75:\n      mload(0x40)\n      dup1\n      swap2\n      sub\n      swap1\n      revert\n    tag_74:\n        /* \"project-42/contracts/contract.sol\":3642:3654  paymentToken */\n      0x00\n      dup1\n      sload\n      swap1\n      0x0100\n      exp\n      swap1\n      div\n      0xffffffffffffffffffffffffffffffffffffffff\n      and\n        /* \"project-42/contracts/contract.sol\":3642:3663  paymentToken.transfer */\n      0xffffffffffffffffffffffffffffffffffffffff\n      and\n      0xa9059cbb\n        /* \"project-42/contracts/contract.sol\":3664:3671  session */\n      dup4\n        /* \"project-42/contracts/contract.sol\":3664:3677  session.tutor */\n      0x00\n      add\n      0x00\n      swap1\n      sload\n      swap1\n      0x0100\n      exp\n      swap1\n      div\n      0xffffffffffffffffffffffffffffffffffffffff\n      and\n        /* \"project-42/contracts/contract.sol\":3679:3691  totalPayment */\n      dup4\n        /* \"project-42/contracts/contract.sol\":3642:3692  paymentToken.transfer(session.tutor, totalPayment) */\n      mload(0x40)\n      dup4\n      0xffffffff\n      and\n      0xe0\n      shl\n      dup2\n      mstore\n      0x04\n      add\n      tag_77\n      swap3\n      swap2\n      swap1\n      tag_52\n      jump\t// in\n    tag_77:\n      0x20\n      mload(0x40)\n      dup1\n      dup4\n      sub\n      dup2\n      0x00\n      dup8\n      gas\n      call\n      iszero\n      dup1\n      iszero\n      tag_79\n      jumpi\n      returndatasize\n      0x00\n      dup1\n      returndatacopy\n      revert(0x00, returndatasize)\n    tag_79:\n      pop\n      pop\n      pop\n      pop\n      mload(0x40)\n      returndatasize\n      not(0x1f)\n      0x1f\n      dup3\n      add\n      and\n      dup3\n      add\n      dup1\n      0x40\n      mstore\n      pop\n      dup2\n      add\n      swap1\n      tag_80\n      swap2\n      swap1\n      tag_56\n      jump\t// in\n    tag_80:\n      pop\n        /* \"project-42/contracts/contract.sol\":3773:3800  SessionCompleted(sessionId) */\n      0xa4030ee788364ad2db0b246a828edf422efb9e2f4a839c21723971d808b4323c\n        /* \"project-42/contracts/contract.sol\":3790:3799  sessionId */\n      dup4\n        /* \"project-42/contracts/contract.sol\":3773:3800  SessionCompleted(sessionId) */\n      mload(0x40)\n      tag_81\n      swap2\n      swap1\n      tag_24\n      jump\t// in\n    tag_81:\n      mload(0x40)\n      dup1\n      swap2\n      sub\n      swap1\n      log1\n        /* \"project-42/contracts/contract.sol\":2973:3807  {... */\n      pop\n      pop\n        /* \"project-42/contracts/contract.sol\":2920:3807  function completeSession(uint256 sessionId) external {... */\n      pop\n      jump\t// out\n        /* \"project-42/contracts/contract.sol\":453:479  IERC20 public paymentToken */\n    tag_18:\n      0x00\n      dup1\n      sload\n      swap1\n      0x0100\n      exp\n      swap1\n      div\n      0xffffffffffffffffffffffffffffffffffffffff\n      and\n      dup2\n      jump\t// out\n        /* \"project-42/contracts/contract.sol\":1576:1607  uint256 public sessionIdCounter */\n    tag_22:\n      sload(0x02)\n      dup2\n      jump\t// out\n        /* \"project-42/contracts/contract.sol\":1088:1139  mapping(uint256 => TutoringSession) public sessions */\n    tag_27:\n      mstore(0x20, 0x01)\n      dup1\n      0x00\n      mstore\n      keccak256(0x00, 0x40)\n      0x00\n      swap2\n      pop\n      swap1\n      pop\n      dup1\n      0x00\n      add\n      0x00\n      swap1\n      sload\n      swap1\n      0x0100\n      exp\n      swap1\n      div\n      0xffffffffffffffffffffffffffffffffffffffff\n      and\n      swap1\n      dup1\n      0x01\n      add\n      0x00\n      swap1\n      sload\n      swap1\n      0x0100\n      exp\n      swap1\n      div\n      0xffffffffffffffffffffffffffffffffffffffff\n      and\n      swap1\n      dup1\n      0x02\n      add\n      sload\n      swap1\n      dup1\n      0x03\n      add\n      sload\n      swap1\n      dup1\n      0x04\n      add\n      0x00\n      swap1\n      sload\n      swap1\n      0x0100\n      exp\n      swap1\n      div\n      0xff\n      and\n      swap1\n      dup1\n      0x04\n      add\n      0x01\n      swap1\n      sload\n      swap1\n      0x0100\n      exp\n      swap1\n      div\n      0xff\n      and\n      swap1\n      pop\n      dup7\n      jump\t// out\n        /* \"project-42/contracts/contract.sol\":3892:4522  function refundSession(uint256 sessionId) external {... */\n    tag_32:\n        /* \"project-42/contracts/contract.sol\":3953:3984  TutoringSession storage session */\n      0x00\n        /* \"project-42/contracts/contract.sol\":3987:3995  sessions */\n      0x01\n        /* \"project-42/contracts/contract.sol\":3987:4006  sessions[sessionId] */\n      0x00\n        /* \"project-42/contracts/contract.sol\":3996:4005  sessionId */\n      dup4\n        /* \"project-42/contracts/contract.sol\":3987:4006  sessions[sessionId] */\n      dup2\n      mstore\n      0x20\n      add\n      swap1\n      dup2\n      mstore\n      0x20\n      add\n      0x00\n      keccak256\n        /* \"project-42/contracts/contract.sol\":3953:4006  TutoringSession storage session = sessions[sessionId] */\n      swap1\n      pop\n        /* \"project-42/contracts/contract.sol\":4091:4101  msg.sender */\n      caller\n        /* \"project-42/contracts/contract.sol\":4074:4101  session.tutor == msg.sender */\n      0xffffffffffffffffffffffffffffffffffffffff\n      and\n        /* \"project-42/contracts/contract.sol\":4074:4081  session */\n      dup2\n        /* \"project-42/contracts/contract.sol\":4074:4087  session.tutor */\n      0x00\n      add\n      0x00\n      swap1\n      sload\n      swap1\n      0x0100\n      exp\n      swap1\n      div\n      0xffffffffffffffffffffffffffffffffffffffff\n      and\n        /* \"project-42/contracts/contract.sol\":4074:4101  session.tutor == msg.sender */\n      0xffffffffffffffffffffffffffffffffffffffff\n      and\n      eq\n        /* \"project-42/contracts/contract.sol\":4066:4139  require(session.tutor == msg.sender, \"Only the tutor can issue a refund\") */\n      tag_83\n      jumpi\n      mload(0x40)\n      0x08c379a000000000000000000000000000000000000000000000000000000000\n      dup2\n      mstore\n      0x04\n      add\n      tag_84\n      swap1\n      tag_85\n      jump\t// in\n    tag_84:\n      mload(0x40)\n      dup1\n      swap2\n      sub\n      swap1\n      revert\n    tag_83:\n        /* \"project-42/contracts/contract.sol\":4158:4165  session */\n      dup1\n        /* \"project-42/contracts/contract.sol\":4158:4177  session.isCompleted */\n      0x04\n      add\n      0x00\n      swap1\n      sload\n      swap1\n      0x0100\n      exp\n      swap1\n      div\n      0xff\n      and\n        /* \"project-42/contracts/contract.sol\":4157:4177  !session.isCompleted */\n      iszero\n        /* \"project-42/contracts/contract.sol\":4149:4220  require(!session.isCompleted, \"Cannot refund after session completion\") */\n      tag_86\n      jumpi\n      mload(0x40)\n      0x08c379a000000000000000000000000000000000000000000000000000000000\n      dup2\n      mstore\n      0x04\n      add\n      tag_87\n      swap1\n      tag_88\n      jump\t// in\n    tag_87:\n      mload(0x40)\n      dup1\n      swap2\n      sub\n      swap1\n      revert\n    tag_86:\n        /* \"project-42/contracts/contract.sol\":4239:4246  session */\n      dup1\n        /* \"project-42/contracts/contract.sol\":4239:4257  session.isRefunded */\n      0x04\n      add\n      0x01\n      swap1\n      sload\n      swap1\n      0x0100\n      exp\n      swap1\n      div\n      0xff\n      and\n        /* \"project-42/contracts/contract.sol\":4238:4257  !session.isRefunded */\n      iszero\n        /* \"project-42/contracts/contract.sol\":4230:4286  require(!session.isRefunded, \"Session already refunded\") */\n      tag_89\n      jumpi\n      mload(0x40)\n      0x08c379a000000000000000000000000000000000000000000000000000000000\n      dup2\n      mstore\n      0x04\n      add\n      tag_90\n      swap1\n      tag_91\n      jump\t// in\n    tag_90:\n      mload(0x40)\n      dup1\n      swap2\n      sub\n      swap1\n      revert\n    tag_89:\n        /* \"project-42/contracts/contract.sol\":4342:4354  paymentToken */\n      0x00\n      dup1\n      sload\n      swap1\n      0x0100\n      exp\n      swap1\n      div\n      0xffffffffffffffffffffffffffffffffffffffff\n      and\n        /* \"project-42/contracts/contract.sol\":4342:4363  paymentToken.transfer */\n      0xffffffffffffffffffffffffffffffffffffffff\n      and\n      0xa9059cbb\n        /* \"project-42/contracts/contract.sol\":4364:4371  session */\n      dup3\n        /* \"project-42/contracts/contract.sol\":4364:4379  session.student */\n      0x01\n      add\n      0x00\n      swap1\n      sload\n      swap1\n      0x0100\n      exp\n      swap1\n      div\n      0xffffffffffffffffffffffffffffffffffffffff\n      and\n        /* \"project-42/contracts/contract.sol\":4381:4388  session */\n      dup4\n        /* \"project-42/contracts/contract.sol\":4381:4396  session.deposit */\n      0x03\n      add\n      sload\n        /* \"project-42/contracts/contract.sol\":4342:4397  paymentToken.transfer(session.student, session.deposit) */\n      mload(0x40)\n      dup4\n      0xffffffff\n      and\n      0xe0\n      shl\n      dup2\n      mstore\n      0x04\n      add\n      tag_92\n      swap3\n      swap2\n      swap1\n      tag_52\n      jump\t// in\n    tag_92:\n      0x20\n      mload(0x40)\n      dup1\n      dup4\n      sub\n      dup2\n      0x00\n      dup8\n      gas\n      call\n      iszero\n      dup1\n      iszero\n      tag_94\n      jumpi\n      returndatasize\n      0x00\n      dup1\n      returndatacopy\n      revert(0x00, returndatasize)\n    tag_94:\n      pop\n      pop\n      pop\n      pop\n      mload(0x40)\n      returndatasize\n      not(0x1f)\n      0x1f\n      dup3\n      add\n      and\n      dup3\n      add\n      dup1\n      0x40\n      mstore\n      pop\n      dup2\n      add\n      swap1\n      tag_95\n      swap2\n      swap1\n      tag_56\n      jump\t// in\n    tag_95:\n      pop\n        /* \"project-42/contracts/contract.sol\":4428:4432  true */\n      0x01\n        /* \"project-42/contracts/contract.sol\":4407:4414  session */\n      dup2\n        /* \"project-42/contracts/contract.sol\":4407:4425  session.isRefunded */\n      0x04\n      add\n      0x01\n        /* \"project-42/contracts/contract.sol\":4407:4432  session.isRefunded = true */\n      0x0100\n      exp\n      dup2\n      sload\n      dup2\n      0xff\n      mul\n      not\n      and\n      swap1\n      dup4\n      iszero\n      iszero\n      mul\n      or\n      swap1\n      sstore\n      pop\n        /* \"project-42/contracts/contract.sol\":4489:4515  SessionRefunded(sessionId) */\n      0xd1f3779e629abfcde92c489a6a1077c9f2a0ef32f46e7aa06e8edc4c4382f154\n        /* \"project-42/contracts/contract.sol\":4505:4514  sessionId */\n      dup3\n        /* \"project-42/contracts/contract.sol\":4489:4515  SessionRefunded(sessionId) */\n      mload(0x40)\n      tag_96\n      swap2\n      swap1\n      tag_24\n      jump\t// in\n    tag_96:\n      mload(0x40)\n      dup1\n      swap2\n      sub\n      swap1\n      log1\n        /* \"project-42/contracts/contract.sol\":3943:4522  {... */\n      pop\n        /* \"project-42/contracts/contract.sol\":3892:4522  function refundSession(uint256 sessionId) external {... */\n      pop\n      jump\t// out\n        /* \"#utility.yul\":88:205   */\n    tag_98:\n        /* \"#utility.yul\":197:198   */\n      0x00\n        /* \"#utility.yul\":194:195   */\n      dup1\n        /* \"#utility.yul\":187:199   */\n      revert\n        /* \"#utility.yul\":334:460   */\n    tag_100:\n        /* \"#utility.yul\":371:378   */\n      0x00\n        /* \"#utility.yul\":411:453   */\n      0xffffffffffffffffffffffffffffffffffffffff\n        /* \"#utility.yul\":404:409   */\n      dup3\n        /* \"#utility.yul\":400:454   */\n      and\n        /* \"#utility.yul\":389:454   */\n      swap1\n      pop\n        /* \"#utility.yul\":334:460   */\n      swap2\n      swap1\n      pop\n      jump\t// out\n        /* \"#utility.yul\":466:562   */\n    tag_101:\n        /* \"#utility.yul\":503:510   */\n      0x00\n        /* \"#utility.yul\":532:556   */\n      tag_146\n        /* \"#utility.yul\":550:555   */\n      dup3\n        /* \"#utility.yul\":532:556   */\n      tag_100\n      jump\t// in\n    tag_146:\n        /* \"#utility.yul\":521:556   */\n      swap1\n      pop\n        /* \"#utility.yul\":466:562   */\n      swap2\n      swap1\n      pop\n      jump\t// out\n        /* \"#utility.yul\":568:690   */\n    tag_102:\n        /* \"#utility.yul\":641:665   */\n      tag_148\n        /* \"#utility.yul\":659:664   */\n      dup2\n        /* \"#utility.yul\":641:665   */\n      tag_101\n      jump\t// in\n    tag_148:\n        /* \"#utility.yul\":634:639   */\n      dup2\n        /* \"#utility.yul\":631:666   */\n      eq\n        /* \"#utility.yul\":621:684   */\n      tag_149\n      jumpi\n        /* \"#utility.yul\":680:681   */\n      0x00\n        /* \"#utility.yul\":677:678   */\n      dup1\n        /* \"#utility.yul\":670:682   */\n      revert\n        /* \"#utility.yul\":621:684   */\n    tag_149:\n        /* \"#utility.yul\":568:690   */\n      pop\n      jump\t// out\n        /* \"#utility.yul\":696:835   */\n    tag_103:\n        /* \"#utility.yul\":742:747   */\n      0x00\n        /* \"#utility.yul\":780:786   */\n      dup2\n        /* \"#utility.yul\":767:787   */\n      calldataload\n        /* \"#utility.yul\":758:787   */\n      swap1\n      pop\n        /* \"#utility.yul\":796:829   */\n      tag_151\n        /* \"#utility.yul\":823:828   */\n      dup2\n        /* \"#utility.yul\":796:829   */\n      tag_102\n      jump\t// in\n    tag_151:\n        /* \"#utility.yul\":696:835   */\n      swap3\n      swap2\n      pop\n      pop\n      jump\t// out\n        /* \"#utility.yul\":841:918   */\n    tag_104:\n        /* \"#utility.yul\":878:885   */\n      0x00\n        /* \"#utility.yul\":907:912   */\n      dup2\n        /* \"#utility.yul\":896:912   */\n      swap1\n      pop\n        /* \"#utility.yul\":841:918   */\n      swap2\n      swap1\n      pop\n      jump\t// out\n        /* \"#utility.yul\":924:1046   */\n    tag_105:\n        /* \"#utility.yul\":997:1021   */\n      tag_154\n        /* \"#utility.yul\":1015:1020   */\n      dup2\n        /* \"#utility.yul\":997:1021   */\n      tag_104\n      jump\t// in\n    tag_154:\n        /* \"#utility.yul\":990:995   */\n      dup2\n        /* \"#utility.yul\":987:1022   */\n      eq\n        /* \"#utility.yul\":977:1040   */\n      tag_155\n      jumpi\n        /* \"#utility.yul\":1036:1037   */\n      0x00\n        /* \"#utility.yul\":1033:1034   */\n      dup1\n        /* \"#utility.yul\":1026:1038   */\n      revert\n        /* \"#utility.yul\":977:1040   */\n    tag_155:\n        /* \"#utility.yul\":924:1046   */\n      pop\n      jump\t// out\n        /* \"#utility.yul\":1052:1191   */\n    tag_106:\n        /* \"#utility.yul\":1098:1103   */\n      0x00\n        /* \"#utility.yul\":1136:1142   */\n      dup2\n        /* \"#utility.yul\":1123:1143   */\n      calldataload\n        /* \"#utility.yul\":1114:1143   */\n      swap1\n      pop\n        /* \"#utility.yul\":1152:1185   */\n      tag_157\n        /* \"#utility.yul\":1179:1184   */\n      dup2\n        /* \"#utility.yul\":1152:1185   */\n      tag_105\n      jump\t// in\n    tag_157:\n        /* \"#utility.yul\":1052:1191   */\n      swap3\n      swap2\n      pop\n      pop\n      jump\t// out\n        /* \"#utility.yul\":1197:1671   */\n    tag_11:\n        /* \"#utility.yul\":1265:1271   */\n      0x00\n        /* \"#utility.yul\":1273:1279   */\n      dup1\n        /* \"#utility.yul\":1322:1324   */\n      0x40\n        /* \"#utility.yul\":1310:1319   */\n      dup4\n        /* \"#utility.yul\":1301:1308   */\n      dup6\n        /* \"#utility.yul\":1297:1320   */\n      sub\n        /* \"#utility.yul\":1293:1325   */\n      slt\n        /* \"#utility.yul\":1290:1409   */\n      iszero\n      tag_159\n      jumpi\n        /* \"#utility.yul\":1328:1407   */\n      tag_160\n      tag_98\n      jump\t// in\n    tag_160:\n        /* \"#utility.yul\":1290:1409   */\n    tag_159:\n        /* \"#utility.yul\":1448:1449   */\n      0x00\n        /* \"#utility.yul\":1473:1526   */\n      tag_161\n        /* \"#utility.yul\":1518:1525   */\n      dup6\n        /* \"#utility.yul\":1509:1515   */\n      dup3\n        /* \"#utility.yul\":1498:1507   */\n      dup7\n        /* \"#utility.yul\":1494:1516   */\n      add\n        /* \"#utility.yul\":1473:1526   */\n      tag_103\n      jump\t// in\n    tag_161:\n        /* \"#utility.yul\":1463:1526   */\n      swap3\n      pop\n        /* \"#utility.yul\":1419:1536   */\n      pop\n        /* \"#utility.yul\":1575:1577   */\n      0x20\n        /* \"#utility.yul\":1601:1654   */\n      tag_162\n        /* \"#utility.yul\":1646:1653   */\n      dup6\n        /* \"#utility.yul\":1637:1643   */\n      dup3\n        /* \"#utility.yul\":1626:1635   */\n      dup7\n        /* \"#utility.yul\":1622:1644   */\n      add\n        /* \"#utility.yul\":1601:1654   */\n      tag_106\n      jump\t// in\n    tag_162:\n        /* \"#utility.yul\":1591:1654   */\n      swap2\n      pop\n        /* \"#utility.yul\":1546:1664   */\n      pop\n        /* \"#utility.yul\":1197:1671   */\n      swap3\n      pop\n      swap3\n      swap1\n      pop\n      jump\t// out\n        /* \"#utility.yul\":1677:2006   */\n    tag_15:\n        /* \"#utility.yul\":1736:1742   */\n      0x00\n        /* \"#utility.yul\":1785:1787   */\n      0x20\n        /* \"#utility.yul\":1773:1782   */\n      dup3\n        /* \"#utility.yul\":1764:1771   */\n      dup5\n        /* \"#utility.yul\":1760:1783   */\n      sub\n        /* \"#utility.yul\":1756:1788   */\n      slt\n        /* \"#utility.yul\":1753:1872   */\n      iszero\n      tag_164\n      jumpi\n        /* \"#utility.yul\":1791:1870   */\n      tag_165\n      tag_98\n      jump\t// in\n    tag_165:\n        /* \"#utility.yul\":1753:1872   */\n    tag_164:\n        /* \"#utility.yul\":1911:1912   */\n      0x00\n        /* \"#utility.yul\":1936:1989   */\n      tag_166\n        /* \"#utility.yul\":1981:1988   */\n      dup5\n        /* \"#utility.yul\":1972:1978   */\n      dup3\n        /* \"#utility.yul\":1961:1970   */\n      dup6\n        /* \"#utility.yul\":1957:1979   */\n      add\n        /* \"#utility.yul\":1936:1989   */\n      tag_106\n      jump\t// in\n    tag_166:\n        /* \"#utility.yul\":1926:1989   */\n      swap2\n      pop\n        /* \"#utility.yul\":1882:1999   */\n      pop\n        /* \"#utility.yul\":1677:2006   */\n      swap3\n      swap2\n      pop\n      pop\n      jump\t// out\n        /* \"#utility.yul\":2012:2072   */\n    tag_107:\n        /* \"#utility.yul\":2040:2043   */\n      0x00\n        /* \"#utility.yul\":2061:2066   */\n      dup2\n        /* \"#utility.yul\":2054:2066   */\n      swap1\n      pop\n        /* \"#utility.yul\":2012:2072   */\n      swap2\n      swap1\n      pop\n      jump\t// out\n        /* \"#utility.yul\":2078:2220   */\n    tag_108:\n        /* \"#utility.yul\":2128:2137   */\n      0x00\n        /* \"#utility.yul\":2161:2214   */\n      tag_169\n        /* \"#utility.yul\":2179:2213   */\n      tag_170\n        /* \"#utility.yul\":2188:2212   */\n      tag_171\n        /* \"#utility.yul\":2206:2211   */\n      dup5\n        /* \"#utility.yul\":2188:2212   */\n      tag_100\n      jump\t// in\n    tag_171:\n        /* \"#utility.yul\":2179:2213   */\n      tag_107\n      jump\t// in\n    tag_170:\n        /* \"#utility.yul\":2161:2214   */\n      tag_100\n      jump\t// in\n    tag_169:\n        /* \"#utility.yul\":2148:2214   */\n      swap1\n      pop\n        /* \"#utility.yul\":2078:2220   */\n      swap2\n      swap1\n      pop\n      jump\t// out\n        /* \"#utility.yul\":2226:2352   */\n    tag_109:\n        /* \"#utility.yul\":2276:2285   */\n      0x00\n        /* \"#utility.yul\":2309:2346   */\n      tag_173\n        /* \"#utility.yul\":2340:2345   */\n      dup3\n        /* \"#utility.yul\":2309:2346   */\n      tag_108\n      jump\t// in\n    tag_173:\n        /* \"#utility.yul\":2296:2346   */\n      swap1\n      pop\n        /* \"#utility.yul\":2226:2352   */\n      swap2\n      swap1\n      pop\n      jump\t// out\n        /* \"#utility.yul\":2358:2497   */\n    tag_110:\n        /* \"#utility.yul\":2421:2430   */\n      0x00\n        /* \"#utility.yul\":2454:2491   */\n      tag_175\n        /* \"#utility.yul\":2485:2490   */\n      dup3\n        /* \"#utility.yul\":2454:2491   */\n      tag_109\n      jump\t// in\n    tag_175:\n        /* \"#utility.yul\":2441:2491   */\n      swap1\n      pop\n        /* \"#utility.yul\":2358:2497   */\n      swap2\n      swap1\n      pop\n      jump\t// out\n        /* \"#utility.yul\":2503:2660   */\n    tag_111:\n        /* \"#utility.yul\":2603:2653   */\n      tag_177\n        /* \"#utility.yul\":2647:2652   */\n      dup2\n        /* \"#utility.yul\":2603:2653   */\n      tag_110\n      jump\t// in\n    tag_177:\n        /* \"#utility.yul\":2598:2601   */\n      dup3\n        /* \"#utility.yul\":2591:2654   */\n      mstore\n        /* \"#utility.yul\":2503:2660   */\n      pop\n      pop\n      jump\t// out\n        /* \"#utility.yul\":2666:2914   */\n    tag_20:\n        /* \"#utility.yul\":2772:2776   */\n      0x00\n        /* \"#utility.yul\":2810:2812   */\n      0x20\n        /* \"#utility.yul\":2799:2808   */\n      dup3\n        /* \"#utility.yul\":2795:2813   */\n      add\n        /* \"#utility.yul\":2787:2813   */\n      swap1\n      pop\n        /* \"#utility.yul\":2823:2907   */\n      tag_179\n        /* \"#utility.yul\":2904:2905   */\n      0x00\n        /* \"#utility.yul\":2893:2902   */\n      dup4\n        /* \"#utility.yul\":2889:2906   */\n      add\n        /* \"#utility.yul\":2880:2886   */\n      dup5\n        /* \"#utility.yul\":2823:2907   */\n      tag_111\n      jump\t// in\n    tag_179:\n        /* \"#utility.yul\":2666:2914   */\n      swap3\n      swap2\n      pop\n      pop\n      jump\t// out\n        /* \"#utility.yul\":2920:3038   */\n    tag_112:\n        /* \"#utility.yul\":3007:3031   */\n      tag_181\n        /* \"#utility.yul\":3025:3030   */\n      dup2\n        /* \"#utility.yul\":3007:3031   */\n      tag_104\n      jump\t// in\n    tag_181:\n        /* \"#utility.yul\":3002:3005   */\n      dup3\n        /* \"#utility.yul\":2995:3032   */\n      mstore\n        /* \"#utility.yul\":2920:3038   */\n      pop\n      pop\n      jump\t// out\n        /* \"#utility.yul\":3044:3266   */\n    tag_24:\n        /* \"#utility.yul\":3137:3141   */\n      0x00\n        /* \"#utility.yul\":3175:3177   */\n      0x20\n        /* \"#utility.yul\":3164:3173   */\n      dup3\n        /* \"#utility.yul\":3160:3178   */\n      add\n        /* \"#utility.yul\":3152:3178   */\n      swap1\n      pop\n        /* \"#utility.yul\":3188:3259   */\n      tag_183\n        /* \"#utility.yul\":3256:3257   */\n      0x00\n        /* \"#utility.yul\":3245:3254   */\n      dup4\n        /* \"#utility.yul\":3241:3258   */\n      add\n        /* \"#utility.yul\":3232:3238   */\n      dup5\n        /* \"#utility.yul\":3188:3259   */\n      tag_112\n      jump\t// in\n    tag_183:\n        /* \"#utility.yul\":3044:3266   */\n      swap3\n      swap2\n      pop\n      pop\n      jump\t// out\n        /* \"#utility.yul\":3272:3390   */\n    tag_113:\n        /* \"#utility.yul\":3359:3383   */\n      tag_185\n        /* \"#utility.yul\":3377:3382   */\n      dup2\n        /* \"#utility.yul\":3359:3383   */\n      tag_101\n      jump\t// in\n    tag_185:\n        /* \"#utility.yul\":3354:3357   */\n      dup3\n        /* \"#utility.yul\":3347:3384   */\n      mstore\n        /* \"#utility.yul\":3272:3390   */\n      pop\n      pop\n      jump\t// out\n        /* \"#utility.yul\":3396:3486   */\n    tag_114:\n        /* \"#utility.yul\":3430:3437   */\n      0x00\n        /* \"#utility.yul\":3473:3478   */\n      dup2\n        /* \"#utility.yul\":3466:3479   */\n      iszero\n        /* \"#utility.yul\":3459:3480   */\n      iszero\n        /* \"#utility.yul\":3448:3480   */\n      swap1\n      pop\n        /* \"#utility.yul\":3396:3486   */\n      swap2\n      swap1\n      pop\n      jump\t// out\n        /* \"#utility.yul\":3492:3601   */\n    tag_115:\n        /* \"#utility.yul\":3573:3594   */\n      tag_188\n        /* \"#utility.yul\":3588:3593   */\n      dup2\n        /* \"#utility.yul\":3573:3594   */\n      tag_114\n      jump\t// in\n    tag_188:\n        /* \"#utility.yul\":3568:3571   */\n      dup3\n        /* \"#utility.yul\":3561:3595   */\n      mstore\n        /* \"#utility.yul\":3492:3601   */\n      pop\n      pop\n      jump\t// out\n        /* \"#utility.yul\":3607:4358   */\n    tag_29:\n        /* \"#utility.yul\":3828:3832   */\n      0x00\n        /* \"#utility.yul\":3866:3869   */\n      0xc0\n        /* \"#utility.yul\":3855:3864   */\n      dup3\n        /* \"#utility.yul\":3851:3870   */\n      add\n        /* \"#utility.yul\":3843:3870   */\n      swap1\n      pop\n        /* \"#utility.yul\":3880:3951   */\n      tag_190\n        /* \"#utility.yul\":3948:3949   */\n      0x00\n        /* \"#utility.yul\":3937:3946   */\n      dup4\n        /* \"#utility.yul\":3933:3950   */\n      add\n        /* \"#utility.yul\":3924:3930   */\n      dup10\n        /* \"#utility.yul\":3880:3951   */\n      tag_113\n      jump\t// in\n    tag_190:\n        /* \"#utility.yul\":3961:4033   */\n      tag_191\n        /* \"#utility.yul\":4029:4031   */\n      0x20\n        /* \"#utility.yul\":4018:4027   */\n      dup4\n        /* \"#utility.yul\":4014:4032   */\n      add\n        /* \"#utility.yul\":4005:4011   */\n      dup9\n        /* \"#utility.yul\":3961:4033   */\n      tag_113\n      jump\t// in\n    tag_191:\n        /* \"#utility.yul\":4043:4115   */\n      tag_192\n        /* \"#utility.yul\":4111:4113   */\n      0x40\n        /* \"#utility.yul\":4100:4109   */\n      dup4\n        /* \"#utility.yul\":4096:4114   */\n      add\n        /* \"#utility.yul\":4087:4093   */\n      dup8\n        /* \"#utility.yul\":4043:4115   */\n      tag_112\n      jump\t// in\n    tag_192:\n        /* \"#utility.yul\":4125:4197   */\n      tag_193\n        /* \"#utility.yul\":4193:4195   */\n      0x60\n        /* \"#utility.yul\":4182:4191   */\n      dup4\n        /* \"#utility.yul\":4178:4196   */\n      add\n        /* \"#utility.yul\":4169:4175   */\n      dup7\n        /* \"#utility.yul\":4125:4197   */\n      tag_112\n      jump\t// in\n    tag_193:\n        /* \"#utility.yul\":4207:4274   */\n      tag_194\n        /* \"#utility.yul\":4269:4272   */\n      0x80\n        /* \"#utility.yul\":4258:4267   */\n      dup4\n        /* \"#utility.yul\":4254:4273   */\n      add\n        /* \"#utility.yul\":4245:4251   */\n      dup6\n        /* \"#utility.yul\":4207:4274   */\n      tag_115\n      jump\t// in\n    tag_194:\n        /* \"#utility.yul\":4284:4351   */\n      tag_195\n        /* \"#utility.yul\":4346:4349   */\n      0xa0\n        /* \"#utility.yul\":4335:4344   */\n      dup4\n        /* \"#utility.yul\":4331:4350   */\n      add\n        /* \"#utility.yul\":4322:4328   */\n      dup5\n        /* \"#utility.yul\":4284:4351   */\n      tag_115\n      jump\t// in\n    tag_195:\n        /* \"#utility.yul\":3607:4358   */\n      swap8\n      swap7\n      pop\n      pop\n      pop\n      pop\n      pop\n      pop\n      pop\n      jump\t// out\n        /* \"#utility.yul\":4364:4533   */\n    tag_116:\n        /* \"#utility.yul\":4448:4459   */\n      0x00\n        /* \"#utility.yul\":4482:4488   */\n      dup3\n        /* \"#utility.yul\":4477:4480   */\n      dup3\n        /* \"#utility.yul\":4470:4489   */\n      mstore\n        /* \"#utility.yul\":4522:4526   */\n      0x20\n        /* \"#utility.yul\":4517:4520   */\n      dup3\n        /* \"#utility.yul\":4513:4527   */\n      add\n        /* \"#utility.yul\":4498:4527   */\n      swap1\n      pop\n        /* \"#utility.yul\":4364:4533   */\n      swap3\n      swap2\n      pop\n      pop\n      jump\t// out\n        /* \"#utility.yul\":4539:4760   */\n    tag_117:\n        /* \"#utility.yul\":4679:4713   */\n      0x53657373696f6e20666565206d7573742062652067726561746572207468616e\n        /* \"#utility.yul\":4675:4676   */\n      0x00\n        /* \"#utility.yul\":4667:4673   */\n      dup3\n        /* \"#utility.yul\":4663:4677   */\n      add\n        /* \"#utility.yul\":4656:4714   */\n      mstore\n        /* \"#utility.yul\":4748:4752   */\n      0x2030000000000000000000000000000000000000000000000000000000000000\n        /* \"#utility.yul\":4743:4745   */\n      0x20\n        /* \"#utility.yul\":4735:4741   */\n      dup3\n        /* \"#utility.yul\":4731:4746   */\n      add\n        /* \"#utility.yul\":4724:4753   */\n      mstore\n        /* \"#utility.yul\":4539:4760   */\n      pop\n      jump\t// out\n        /* \"#utility.yul\":4766:5132   */\n    tag_118:\n        /* \"#utility.yul\":4908:4911   */\n      0x00\n        /* \"#utility.yul\":4929:4996   */\n      tag_199\n        /* \"#utility.yul\":4993:4995   */\n      0x22\n        /* \"#utility.yul\":4988:4991   */\n      dup4\n        /* \"#utility.yul\":4929:4996   */\n      tag_116\n      jump\t// in\n    tag_199:\n        /* \"#utility.yul\":4922:4996   */\n      swap2\n      pop\n        /* \"#utility.yul\":5005:5098   */\n      tag_200\n        /* \"#utility.yul\":5094:5097   */\n      dup3\n        /* \"#utility.yul\":5005:5098   */\n      tag_117\n      jump\t// in\n    tag_200:\n        /* \"#utility.yul\":5123:5125   */\n      0x40\n        /* \"#utility.yul\":5118:5121   */\n      dup3\n        /* \"#utility.yul\":5114:5126   */\n      add\n        /* \"#utility.yul\":5107:5126   */\n      swap1\n      pop\n        /* \"#utility.yul\":4766:5132   */\n      swap2\n      swap1\n      pop\n      jump\t// out\n        /* \"#utility.yul\":5138:5557   */\n    tag_36:\n        /* \"#utility.yul\":5304:5308   */\n      0x00\n        /* \"#utility.yul\":5342:5344   */\n      0x20\n        /* \"#utility.yul\":5331:5340   */\n      dup3\n        /* \"#utility.yul\":5327:5345   */\n      add\n        /* \"#utility.yul\":5319:5345   */\n      swap1\n      pop\n        /* \"#utility.yul\":5391:5400   */\n      dup2\n        /* \"#utility.yul\":5385:5389   */\n      dup2\n        /* \"#utility.yul\":5381:5401   */\n      sub\n        /* \"#utility.yul\":5377:5378   */\n      0x00\n        /* \"#utility.yul\":5366:5375   */\n      dup4\n        /* \"#utility.yul\":5362:5379   */\n      add\n        /* \"#utility.yul\":5355:5402   */\n      mstore\n        /* \"#utility.yul\":5419:5550   */\n      tag_202\n        /* \"#utility.yul\":5545:5549   */\n      dup2\n        /* \"#utility.yul\":5419:5550   */\n      tag_118\n      jump\t// in\n    tag_202:\n        /* \"#utility.yul\":5411:5550   */\n      swap1\n      pop\n        /* \"#utility.yul\":5138:5557   */\n      swap2\n      swap1\n      pop\n      jump\t// out\n        /* \"#utility.yul\":5563:5789   */\n    tag_119:\n        /* \"#utility.yul\":5703:5737   */\n      0x596f752063616e6e6f7420626f6f6b20612073657373696f6e20776974682079\n        /* \"#utility.yul\":5699:5700   */\n      0x00\n        /* \"#utility.yul\":5691:5697   */\n      dup3\n        /* \"#utility.yul\":5687:5701   */\n      add\n        /* \"#utility.yul\":5680:5738   */\n      mstore\n        /* \"#utility.yul\":5772:5781   */\n      0x6f757273656c6600000000000000000000000000000000000000000000000000\n        /* \"#utility.yul\":5767:5769   */\n      0x20\n        /* \"#utility.yul\":5759:5765   */\n      dup3\n        /* \"#utility.yul\":5755:5770   */\n      add\n        /* \"#utility.yul\":5748:5782   */\n      mstore\n        /* \"#utility.yul\":5563:5789   */\n      pop\n      jump\t// out\n        /* \"#utility.yul\":5795:6161   */\n    tag_120:\n        /* \"#utility.yul\":5937:5940   */\n      0x00\n        /* \"#utility.yul\":5958:6025   */\n      tag_205\n        /* \"#utility.yul\":6022:6024   */\n      0x27\n        /* \"#utility.yul\":6017:6020   */\n      dup4\n        /* \"#utility.yul\":5958:6025   */\n      tag_116\n      jump\t// in\n    tag_205:\n        /* \"#utility.yul\":5951:6025   */\n      swap2\n      pop\n        /* \"#utility.yul\":6034:6127   */\n      tag_206\n        /* \"#utility.yul\":6123:6126   */\n      dup3\n        /* \"#utility.yul\":6034:6127   */\n      tag_119\n      jump\t// in\n    tag_206:\n        /* \"#utility.yul\":6152:6154   */\n      0x40\n        /* \"#utility.yul\":6147:6150   */\n      dup3\n        /* \"#utility.yul\":6143:6155   */\n      add\n        /* \"#utility.yul\":6136:6155   */\n      swap1\n      pop\n        /* \"#utility.yul\":5795:6161   */\n      swap2\n      swap1\n      pop\n      jump\t// out\n        /* \"#utility.yul\":6167:6586   */\n    tag_39:\n        /* \"#utility.yul\":6333:6337   */\n      0x00\n        /* \"#utility.yul\":6371:6373   */\n      0x20\n        /* \"#utility.yul\":6360:6369   */\n      dup3\n        /* \"#utility.yul\":6356:6374   */\n      add\n        /* \"#utility.yul\":6348:6374   */\n      swap1\n      pop\n        /* \"#utility.yul\":6420:6429   */\n      dup2\n        /* \"#utility.yul\":6414:6418   */\n      dup2\n        /* \"#utility.yul\":6410:6430   */\n      sub\n        /* \"#utility.yul\":6406:6407   */\n      0x00\n        /* \"#utility.yul\":6395:6404   */\n      dup4\n        /* \"#utility.yul\":6391:6408   */\n      add\n        /* \"#utility.yul\":6384:6431   */\n      mstore\n        /* \"#utility.yul\":6448:6579   */\n      tag_208\n        /* \"#utility.yul\":6574:6578   */\n      dup2\n        /* \"#utility.yul\":6448:6579   */\n      tag_120\n      jump\t// in\n    tag_208:\n        /* \"#utility.yul\":6440:6579   */\n      swap1\n      pop\n        /* \"#utility.yul\":6167:6586   */\n      swap2\n      swap1\n      pop\n      jump\t// out\n        /* \"#utility.yul\":6592:6772   */\n    tag_121:\n        /* \"#utility.yul\":6640:6717   */\n      0x4e487b7100000000000000000000000000000000000000000000000000000000\n        /* \"#utility.yul\":6637:6638   */\n      0x00\n        /* \"#utility.yul\":6630:6718   */\n      mstore\n        /* \"#utility.yul\":6737:6741   */\n      0x12\n        /* \"#utility.yul\":6734:6735   */\n      0x04\n        /* \"#utility.yul\":6727:6742   */\n      mstore\n        /* \"#utility.yul\":6761:6765   */\n      0x24\n        /* \"#utility.yul\":6758:6759   */\n      0x00\n        /* \"#utility.yul\":6751:6766   */\n      revert\n        /* \"#utility.yul\":6778:6958   */\n    tag_122:\n        /* \"#utility.yul\":6826:6903   */\n      0x4e487b7100000000000000000000000000000000000000000000000000000000\n        /* \"#utility.yul\":6823:6824   */\n      0x00\n        /* \"#utility.yul\":6816:6904   */\n      mstore\n        /* \"#utility.yul\":6923:6927   */\n      0x11\n        /* \"#utility.yul\":6920:6921   */\n      0x04\n        /* \"#utility.yul\":6913:6928   */\n      mstore\n        /* \"#utility.yul\":6947:6951   */\n      0x24\n        /* \"#utility.yul\":6944:6945   */\n      0x00\n        /* \"#utility.yul\":6937:6952   */\n      revert\n        /* \"#utility.yul\":6964:7149   */\n    tag_41:\n        /* \"#utility.yul\":7004:7005   */\n      0x00\n        /* \"#utility.yul\":7021:7041   */\n      tag_212\n        /* \"#utility.yul\":7039:7040   */\n      dup3\n        /* \"#utility.yul\":7021:7041   */\n      tag_104\n      jump\t// in\n    tag_212:\n        /* \"#utility.yul\":7016:7041   */\n      swap2\n      pop\n        /* \"#utility.yul\":7055:7075   */\n      tag_213\n        /* \"#utility.yul\":7073:7074   */\n      dup4\n        /* \"#utility.yul\":7055:7075   */\n      tag_104\n      jump\t// in\n    tag_213:\n        /* \"#utility.yul\":7050:7075   */\n      swap3\n      pop\n        /* \"#utility.yul\":7094:7095   */\n      dup3\n        /* \"#utility.yul\":7084:7119   */\n      tag_214\n      jumpi\n        /* \"#utility.yul\":7099:7117   */\n      tag_215\n      tag_121\n      jump\t// in\n    tag_215:\n        /* \"#utility.yul\":7084:7119   */\n    tag_214:\n        /* \"#utility.yul\":7141:7142   */\n      dup3\n        /* \"#utility.yul\":7138:7139   */\n      dup3\n        /* \"#utility.yul\":7134:7143   */\n      div\n        /* \"#utility.yul\":7129:7143   */\n      swap1\n      pop\n        /* \"#utility.yul\":6964:7149   */\n      swap3\n      swap2\n      pop\n      pop\n      jump\t// out\n        /* \"#utility.yul\":7155:7377   */\n    tag_43:\n        /* \"#utility.yul\":7248:7252   */\n      0x00\n        /* \"#utility.yul\":7286:7288   */\n      0x20\n        /* \"#utility.yul\":7275:7284   */\n      dup3\n        /* \"#utility.yul\":7271:7289   */\n      add\n        /* \"#utility.yul\":7263:7289   */\n      swap1\n      pop\n        /* \"#utility.yul\":7299:7370   */\n      tag_217\n        /* \"#utility.yul\":7367:7368   */\n      0x00\n        /* \"#utility.yul\":7356:7365   */\n      dup4\n        /* \"#utility.yul\":7352:7369   */\n      add\n        /* \"#utility.yul\":7343:7349   */\n      dup5\n        /* \"#utility.yul\":7299:7370   */\n      tag_113\n      jump\t// in\n    tag_217:\n        /* \"#utility.yul\":7155:7377   */\n      swap3\n      swap2\n      pop\n      pop\n      jump\t// out\n        /* \"#utility.yul\":7383:7526   */\n    tag_123:\n        /* \"#utility.yul\":7440:7445   */\n      0x00\n        /* \"#utility.yul\":7471:7477   */\n      dup2\n        /* \"#utility.yul\":7465:7478   */\n      mload\n        /* \"#utility.yul\":7456:7478   */\n      swap1\n      pop\n        /* \"#utility.yul\":7487:7520   */\n      tag_219\n        /* \"#utility.yul\":7514:7519   */\n      dup2\n        /* \"#utility.yul\":7487:7520   */\n      tag_105\n      jump\t// in\n    tag_219:\n        /* \"#utility.yul\":7383:7526   */\n      swap3\n      swap2\n      pop\n      pop\n      jump\t// out\n        /* \"#utility.yul\":7532:7883   */\n    tag_47:\n        /* \"#utility.yul\":7602:7608   */\n      0x00\n        /* \"#utility.yul\":7651:7653   */\n      0x20\n        /* \"#utility.yul\":7639:7648   */\n      dup3\n        /* \"#utility.yul\":7630:7637   */\n      dup5\n        /* \"#utility.yul\":7626:7649   */\n      sub\n        /* \"#utility.yul\":7622:7654   */\n      slt\n        /* \"#utility.yul\":7619:7738   */\n      iszero\n      tag_221\n      jumpi\n        /* \"#utility.yul\":7657:7736   */\n      tag_222\n      tag_98\n      jump\t// in\n    tag_222:\n        /* \"#utility.yul\":7619:7738   */\n    tag_221:\n        /* \"#utility.yul\":7777:7778   */\n      0x00\n        /* \"#utility.yul\":7802:7866   */\n      tag_223\n        /* \"#utility.yul\":7858:7865   */\n      dup5\n        /* \"#utility.yul\":7849:7855   */\n      dup3\n        /* \"#utility.yul\":7838:7847   */\n      dup6\n        /* \"#utility.yul\":7834:7856   */\n      add\n        /* \"#utility.yul\":7802:7866   */\n      tag_123\n      jump\t// in\n    tag_223:\n        /* \"#utility.yul\":7792:7866   */\n      swap2\n      pop\n        /* \"#utility.yul\":7748:7876   */\n      pop\n        /* \"#utility.yul\":7532:7883   */\n      swap3\n      swap2\n      pop\n      pop\n      jump\t// out\n        /* \"#utility.yul\":7889:8071   */\n    tag_124:\n        /* \"#utility.yul\":8029:8063   */\n      0x496e73756666696369656e742062616c616e636520666f72206465706f736974\n        /* \"#utility.yul\":8025:8026   */\n      0x00\n        /* \"#utility.yul\":8017:8023   */\n      dup3\n        /* \"#utility.yul\":8013:8027   */\n      add\n        /* \"#utility.yul\":8006:8064   */\n      mstore\n        /* \"#utility.yul\":7889:8071   */\n      pop\n      jump\t// out\n        /* \"#utility.yul\":8077:8443   */\n    tag_125:\n        /* \"#utility.yul\":8219:8222   */\n      0x00\n        /* \"#utility.yul\":8240:8307   */\n      tag_226\n        /* \"#utility.yul\":8304:8306   */\n      0x20\n        /* \"#utility.yul\":8299:8302   */\n      dup4\n        /* \"#utility.yul\":8240:8307   */\n      tag_116\n      jump\t// in\n    tag_226:\n        /* \"#utility.yul\":8233:8307   */\n      swap2\n      pop\n        /* \"#utility.yul\":8316:8409   */\n      tag_227\n        /* \"#utility.yul\":8405:8408   */\n      dup3\n        /* \"#utility.yul\":8316:8409   */\n      tag_124\n      jump\t// in\n    tag_227:\n        /* \"#utility.yul\":8434:8436   */\n      0x20\n        /* \"#utility.yul\":8429:8432   */\n      dup3\n        /* \"#utility.yul\":8425:8437   */\n      add\n        /* \"#utility.yul\":8418:8437   */\n      swap1\n      pop\n        /* \"#utility.yul\":8077:8443   */\n      swap2\n      swap1\n      pop\n      jump\t// out\n        /* \"#utility.yul\":8449:8868   */\n    tag_50:\n        /* \"#utility.yul\":8615:8619   */\n      0x00\n        /* \"#utility.yul\":8653:8655   */\n      0x20\n        /* \"#utility.yul\":8642:8651   */\n      dup3\n        /* \"#utility.yul\":8638:8656   */\n      add\n        /* \"#utility.yul\":8630:8656   */\n      swap1\n      pop\n        /* \"#utility.yul\":8702:8711   */\n      dup2\n        /* \"#utility.yul\":8696:8700   */\n      dup2\n        /* \"#utility.yul\":8692:8712   */\n      sub\n        /* \"#utility.yul\":8688:8689   */\n      0x00\n        /* \"#utility.yul\":8677:8686   */\n      dup4\n        /* \"#utility.yul\":8673:8690   */\n      add\n        /* \"#utility.yul\":8666:8713   */\n      mstore\n        /* \"#utility.yul\":8730:8861   */\n      tag_229\n        /* \"#utility.yul\":8856:8860   */\n      dup2\n        /* \"#utility.yul\":8730:8861   */\n      tag_125\n      jump\t// in\n    tag_229:\n        /* \"#utility.yul\":8722:8861   */\n      swap1\n      pop\n        /* \"#utility.yul\":8449:8868   */\n      swap2\n      swap1\n      pop\n      jump\t// out\n        /* \"#utility.yul\":8874:9206   */\n    tag_52:\n        /* \"#utility.yul\":8995:8999   */\n      0x00\n        /* \"#utility.yul\":9033:9035   */\n      0x40\n        /* \"#utility.yul\":9022:9031   */\n      dup3\n        /* \"#utility.yul\":9018:9036   */\n      add\n        /* \"#utility.yul\":9010:9036   */\n      swap1\n      pop\n        /* \"#utility.yul\":9046:9117   */\n      tag_231\n        /* \"#utility.yul\":9114:9115   */\n      0x00\n        /* \"#utility.yul\":9103:9112   */\n      dup4\n        /* \"#utility.yul\":9099:9116   */\n      add\n        /* \"#utility.yul\":9090:9096   */\n      dup6\n        /* \"#utility.yul\":9046:9117   */\n      tag_113\n      jump\t// in\n    tag_231:\n        /* \"#utility.yul\":9127:9199   */\n      tag_232\n        /* \"#utility.yul\":9195:9197   */\n      0x20\n        /* \"#utility.yul\":9184:9193   */\n      dup4\n        /* \"#utility.yul\":9180:9198   */\n      add\n        /* \"#utility.yul\":9171:9177   */\n      dup5\n        /* \"#utility.yul\":9127:9199   */\n      tag_112\n      jump\t// in\n    tag_232:\n        /* \"#utility.yul\":8874:9206   */\n      swap4\n      swap3\n      pop\n      pop\n      pop\n      jump\t// out\n        /* \"#utility.yul\":9212:9328   */\n    tag_126:\n        /* \"#utility.yul\":9282:9303   */\n      tag_234\n        /* \"#utility.yul\":9297:9302   */\n      dup2\n        /* \"#utility.yul\":9282:9303   */\n      tag_114\n      jump\t// in\n    tag_234:\n        /* \"#utility.yul\":9275:9280   */\n      dup2\n        /* \"#utility.yul\":9272:9304   */\n      eq\n        /* \"#utility.yul\":9262:9322   */\n      tag_235\n      jumpi\n        /* \"#utility.yul\":9318:9319   */\n      0x00\n        /* \"#utility.yul\":9315:9316   */\n      dup1\n        /* \"#utility.yul\":9308:9320   */\n      revert\n        /* \"#utility.yul\":9262:9322   */\n    tag_235:\n        /* \"#utility.yul\":9212:9328   */\n      pop\n      jump\t// out\n        /* \"#utility.yul\":9334:9471   */\n    tag_127:\n        /* \"#utility.yul\":9388:9393   */\n      0x00\n        /* \"#utility.yul\":9419:9425   */\n      dup2\n        /* \"#utility.yul\":9413:9426   */\n      mload\n        /* \"#utility.yul\":9404:9426   */\n      swap1\n      pop\n        /* \"#utility.yul\":9435:9465   */\n      tag_237\n        /* \"#utility.yul\":9459:9464   */\n      dup2\n        /* \"#utility.yul\":9435:9465   */\n      tag_126\n      jump\t// in\n    tag_237:\n        /* \"#utility.yul\":9334:9471   */\n      swap3\n      swap2\n      pop\n      pop\n      jump\t// out\n        /* \"#utility.yul\":9477:9822   */\n    tag_56:\n        /* \"#utility.yul\":9544:9550   */\n      0x00\n        /* \"#utility.yul\":9593:9595   */\n      0x20\n        /* \"#utility.yul\":9581:9590   */\n      dup3\n        /* \"#utility.yul\":9572:9579   */\n      dup5\n        /* \"#utility.yul\":9568:9591   */\n      sub\n        /* \"#utility.yul\":9564:9596   */\n      slt\n        /* \"#utility.yul\":9561:9680   */\n      iszero\n      tag_239\n      jumpi\n        /* \"#utility.yul\":9599:9678   */\n      tag_240\n      tag_98\n      jump\t// in\n    tag_240:\n        /* \"#utility.yul\":9561:9680   */\n    tag_239:\n        /* \"#utility.yul\":9719:9720   */\n      0x00\n        /* \"#utility.yul\":9744:9805   */\n      tag_241\n        /* \"#utility.yul\":9797:9804   */\n      dup5\n        /* \"#utility.yul\":9788:9794   */\n      dup3\n        /* \"#utility.yul\":9777:9786   */\n      dup6\n        /* \"#utility.yul\":9773:9795   */\n      add\n        /* \"#utility.yul\":9744:9805   */\n      tag_127\n      jump\t// in\n    tag_241:\n        /* \"#utility.yul\":9734:9805   */\n      swap2\n      pop\n        /* \"#utility.yul\":9690:9815   */\n      pop\n        /* \"#utility.yul\":9477:9822   */\n      swap3\n      swap2\n      pop\n      pop\n      jump\t// out\n        /* \"#utility.yul\":9828:10061   */\n    tag_58:\n        /* \"#utility.yul\":9867:9870   */\n      0x00\n        /* \"#utility.yul\":9890:9914   */\n      tag_243\n        /* \"#utility.yul\":9908:9913   */\n      dup3\n        /* \"#utility.yul\":9890:9914   */\n      tag_104\n      jump\t// in\n    tag_243:\n        /* \"#utility.yul\":9881:9914   */\n      swap2\n      pop\n        /* \"#utility.yul\":9936:10002   */\n      0xffffffffffffffffffffffffffffffffffffffffffffffffffffffffffffffff\n        /* \"#utility.yul\":9929:9934   */\n      dup3\n        /* \"#utility.yul\":9926:10003   */\n      sub\n        /* \"#utility.yul\":9923:10026   */\n      tag_244\n      jumpi\n        /* \"#utility.yul\":10006:10024   */\n      tag_245\n      tag_122\n      jump\t// in\n    tag_245:\n        /* \"#utility.yul\":9923:10026   */\n    tag_244:\n        /* \"#utility.yul\":10053:10054   */\n      0x01\n        /* \"#utility.yul\":10046:10051   */\n      dup3\n        /* \"#utility.yul\":10042:10055   */\n      add\n        /* \"#utility.yul\":10035:10055   */\n      swap1\n      pop\n        /* \"#utility.yul\":9828:10061   */\n      swap2\n      swap1\n      pop\n      jump\t// out\n        /* \"#utility.yul\":10067:10399   */\n    tag_60:\n        /* \"#utility.yul\":10188:10192   */\n      0x00\n        /* \"#utility.yul\":10226:10228   */\n      0x40\n        /* \"#utility.yul\":10215:10224   */\n      dup3\n        /* \"#utility.yul\":10211:10229   */\n      add\n        /* \"#utility.yul\":10203:10229   */\n      swap1\n      pop\n        /* \"#utility.yul\":10239:10310   */\n      tag_247\n        /* \"#utility.yul\":10307:10308   */\n      0x00\n        /* \"#utility.yul\":10296:10305   */\n      dup4\n        /* \"#utility.yul\":10292:10309   */\n      add\n        /* \"#utility.yul\":10283:10289   */\n      dup6\n        /* \"#utility.yul\":10239:10310   */\n      tag_112\n      jump\t// in\n    tag_247:\n        /* \"#utility.yul\":10320:10392   */\n      tag_248\n        /* \"#utility.yul\":10388:10390   */\n      0x20\n        /* \"#utility.yul\":10377:10386   */\n      dup4\n        /* \"#utility.yul\":10373:10391   */\n      add\n        /* \"#utility.yul\":10364:10370   */\n      dup5\n        /* \"#utility.yul\":10320:10392   */\n      tag_112\n      jump\t// in\n    tag_248:\n        /* \"#utility.yul\":10067:10399   */\n      swap4\n      swap3\n      pop\n      pop\n      pop\n      jump\t// out\n        /* \"#utility.yul\":10405:10631   */\n    tag_128:\n        /* \"#utility.yul\":10545:10579   */\n      0x4f6e6c7920746865207475746f722063616e20636f6d706c6574652074686520\n        /* \"#utility.yul\":10541:10542   */\n      0x00\n        /* \"#utility.yul\":10533:10539   */\n      dup3\n        /* \"#utility.yul\":10529:10543   */\n      add\n        /* \"#utility.yul\":10522:10580   */\n      mstore\n        /* \"#utility.yul\":10614:10623   */\n      0x73657373696f6e00000000000000000000000000000000000000000000000000\n        /* \"#utility.yul\":10609:10611   */\n      0x20\n        /* \"#utility.yul\":10601:10607   */\n      dup3\n        /* \"#utility.yul\":10597:10612   */\n      add\n        /* \"#utility.yul\":10590:10624   */\n      mstore\n        /* \"#utility.yul\":10405:10631   */\n      pop\n      jump\t// out\n        /* \"#utility.yul\":10637:11003   */\n    tag_129:\n        /* \"#utility.yul\":10779:10782   */\n      0x00\n        /* \"#utility.yul\":10800:10867   */\n      tag_251\n        /* \"#utility.yul\":10864:10866   */\n      0x27\n        /* \"#utility.yul\":10859:10862   */\n      dup4\n        /* \"#utility.yul\":10800:10867   */\n      tag_116\n      jump\t// in\n    tag_251:\n        /* \"#utility.yul\":10793:10867   */\n      swap2\n      pop\n        /* \"#utility.yul\":10876:10969   */\n      tag_252\n        /* \"#utility.yul\":10965:10968   */\n      dup3\n        /* \"#utility.yul\":10876:10969   */\n      tag_128\n      jump\t// in\n    tag_252:\n        /* \"#utility.yul\":10994:10996   */\n      0x40\n        /* \"#utility.yul\":10989:10992   */\n      dup3\n        /* \"#utility.yul\":10985:10997   */\n      add\n        /* \"#utility.yul\":10978:10997   */\n      swap1\n      pop\n        /* \"#utility.yul\":10637:11003   */\n      swap2\n      swap1\n      pop\n      jump\t// out\n        /* \"#utility.yul\":11009:11428   */\n    tag_64:\n        /* \"#utility.yul\":11175:11179   */\n      0x00\n        /* \"#utility.yul\":11213:11215   */\n      0x20\n        /* \"#utility.yul\":11202:11211   */\n      dup3\n        /* \"#utility.yul\":11198:11216   */\n      add\n        /* \"#utility.yul\":11190:11216   */\n      swap1\n      pop\n        /* \"#utility.yul\":11262:11271   */\n      dup2\n        /* \"#utility.yul\":11256:11260   */\n      dup2\n        /* \"#utility.yul\":11252:11272   */\n      sub\n        /* \"#utility.yul\":11248:11249   */\n      0x00\n        /* \"#utility.yul\":11237:11246   */\n      dup4\n        /* \"#utility.yul\":11233:11250   */\n      add\n        /* \"#utility.yul\":11226:11273   */\n      mstore\n        /* \"#utility.yul\":11290:11421   */\n      tag_254\n        /* \"#utility.yul\":11416:11420   */\n      dup2\n        /* \"#utility.yul\":11290:11421   */\n      tag_129\n      jump\t// in\n    tag_254:\n        /* \"#utility.yul\":11282:11421   */\n      swap1\n      pop\n        /* \"#utility.yul\":11009:11428   */\n      swap2\n      swap1\n      pop\n      jump\t// out\n        /* \"#utility.yul\":11434:11609   */\n    tag_130:\n        /* \"#utility.yul\":11574:11601   */\n      0x53657373696f6e20616c726561647920636f6d706c6574656400000000000000\n        /* \"#utility.yul\":11570:11571   */\n      0x00\n        /* \"#utility.yul\":11562:11568   */\n      dup3\n        /* \"#utility.yul\":11558:11572   */\n      add\n        /* \"#utility.yul\":11551:11602   */\n      mstore\n        /* \"#utility.yul\":11434:11609   */\n      pop\n      jump\t// out\n        /* \"#utility.yul\":11615:11981   */\n    tag_131:\n        /* \"#utility.yul\":11757:11760   */\n      0x00\n        /* \"#utility.yul\":11778:11845   */\n      tag_257\n        /* \"#utility.yul\":11842:11844   */\n      0x19\n        /* \"#utility.yul\":11837:11840   */\n      dup4\n        /* \"#utility.yul\":11778:11845   */\n      tag_116\n      jump\t// in\n    tag_257:\n        /* \"#utility.yul\":11771:11845   */\n      swap2\n      pop\n        /* \"#utility.yul\":11854:11947   */\n      tag_258\n        /* \"#utility.yul\":11943:11946   */\n      dup3\n        /* \"#utility.yul\":11854:11947   */\n      tag_130\n      jump\t// in\n    tag_258:\n        /* \"#utility.yul\":11972:11974   */\n      0x20\n        /* \"#utility.yul\":11967:11970   */\n      dup3\n        /* \"#utility.yul\":11963:11975   */\n      add\n        /* \"#utility.yul\":11956:11975   */\n      swap1\n      pop\n        /* \"#utility.yul\":11615:11981   */\n      swap2\n      swap1\n      pop\n      jump\t// out\n        /* \"#utility.yul\":11987:12406   */\n    tag_67:\n        /* \"#utility.yul\":12153:12157   */\n      0x00\n        /* \"#utility.yul\":12191:12193   */\n      0x20\n        /* \"#utility.yul\":12180:12189   */\n      dup3\n        /* \"#utility.yul\":12176:12194   */\n      add\n        /* \"#utility.yul\":12168:12194   */\n      swap1\n      pop\n        /* \"#utility.yul\":12240:12249   */\n      dup2\n        /* \"#utility.yul\":12234:12238   */\n      dup2\n        /* \"#utility.yul\":12230:12250   */\n      sub\n        /* \"#utility.yul\":12226:12227   */\n      0x00\n        /* \"#utility.yul\":12215:12224   */\n      dup4\n        /* \"#utility.yul\":12211:12228   */\n      add\n        /* \"#utility.yul\":12204:12251   */\n      mstore\n        /* \"#utility.yul\":12268:12399   */\n      tag_260\n        /* \"#utility.yul\":12394:12398   */\n      dup2\n        /* \"#utility.yul\":12268:12399   */\n      tag_131\n      jump\t// in\n    tag_260:\n        /* \"#utility.yul\":12260:12399   */\n      swap1\n      pop\n        /* \"#utility.yul\":11987:12406   */\n      swap2\n      swap1\n      pop\n      jump\t// out\n        /* \"#utility.yul\":12412:12606   */\n    tag_69:\n        /* \"#utility.yul\":12452:12456   */\n      0x00\n        /* \"#utility.yul\":12472:12492   */\n      tag_262\n        /* \"#utility.yul\":12490:12491   */\n      dup3\n        /* \"#utility.yul\":12472:12492   */\n      tag_104\n      jump\t// in\n    tag_262:\n        /* \"#utility.yul\":12467:12492   */\n      swap2\n      pop\n        /* \"#utility.yul\":12506:12526   */\n      tag_263\n        /* \"#utility.yul\":12524:12525   */\n      dup4\n        /* \"#utility.yul\":12506:12526   */\n      tag_104\n      jump\t// in\n    tag_263:\n        /* \"#utility.yul\":12501:12526   */\n      swap3\n      pop\n        /* \"#utility.yul\":12550:12551   */\n      dup3\n        /* \"#utility.yul\":12547:12548   */\n      dup3\n        /* \"#utility.yul\":12543:12552   */\n      sub\n        /* \"#utility.yul\":12535:12552   */\n      swap1\n      pop\n        /* \"#utility.yul\":12574:12575   */\n      dup2\n        /* \"#utility.yul\":12568:12572   */\n      dup2\n        /* \"#utility.yul\":12565:12576   */\n      gt\n        /* \"#utility.yul\":12562:12599   */\n      iszero\n      tag_264\n      jumpi\n        /* \"#utility.yul\":12579:12597   */\n      tag_265\n      tag_122\n      jump\t// in\n    tag_265:\n        /* \"#utility.yul\":12562:12599   */\n    tag_264:\n        /* \"#utility.yul\":12412:12606   */\n      swap3\n      swap2\n      pop\n      pop\n      jump\t// out\n        /* \"#utility.yul\":12612:12791   */\n    tag_132:\n        /* \"#utility.yul\":12752:12783   */\n      0x496e73756666696369656e7420636f6e74726163742062616c616e6365000000\n        /* \"#utility.yul\":12748:12749   */\n      0x00\n        /* \"#utility.yul\":12740:12746   */\n      dup3\n        /* \"#utility.yul\":12736:12750   */\n      add\n        /* \"#utility.yul\":12729:12784   */\n      mstore\n        /* \"#utility.yul\":12612:12791   */\n      pop\n      jump\t// out\n        /* \"#utility.yul\":12797:13163   */\n    tag_133:\n        /* \"#utility.yul\":12939:12942   */\n      0x00\n        /* \"#utility.yul\":12960:13027   */\n      tag_268\n        /* \"#utility.yul\":13024:13026   */\n      0x1d\n        /* \"#utility.yul\":13019:13022   */\n      dup4\n        /* \"#utility.yul\":12960:13027   */\n      tag_116\n      jump\t// in\n    tag_268:\n        /* \"#utility.yul\":12953:13027   */\n      swap2\n      pop\n        /* \"#utility.yul\":13036:13129   */\n      tag_269\n        /* \"#utility.yul\":13125:13128   */\n      dup3\n        /* \"#utility.yul\":13036:13129   */\n      tag_132\n      jump\t// in\n    tag_269:\n        /* \"#utility.yul\":13154:13156   */\n      0x20\n        /* \"#utility.yul\":13149:13152   */\n      dup3\n        /* \"#utility.yul\":13145:13157   */\n      add\n        /* \"#utility.yul\":13138:13157   */\n      swap1\n      pop\n        /* \"#utility.yul\":12797:13163   */\n      swap2\n      swap1\n      pop\n      jump\t// out\n        /* \"#utility.yul\":13169:13588   */\n    tag_76:\n        /* \"#utility.yul\":13335:13339   */\n      0x00\n        /* \"#utility.yul\":13373:13375   */\n      0x20\n        /* \"#utility.yul\":13362:13371   */\n      dup3\n        /* \"#utility.yul\":13358:13376   */\n      add\n        /* \"#utility.yul\":13350:13376   */\n      swap1\n      pop\n        /* \"#utility.yul\":13422:13431   */\n      dup2\n        /* \"#utility.yul\":13416:13420   */\n      dup2\n        /* \"#utility.yul\":13412:13432   */\n      sub\n        /* \"#utility.yul\":13408:13409   */\n      0x00\n        /* \"#utility.yul\":13397:13406   */\n      dup4\n        /* \"#utility.yul\":13393:13410   */\n      add\n        /* \"#utility.yul\":13386:13433   */\n      mstore\n        /* \"#utility.yul\":13450:13581   */\n      tag_271\n        /* \"#utility.yul\":13576:13580   */\n      dup2\n        /* \"#utility.yul\":13450:13581   */\n      tag_133\n      jump\t// in\n    tag_271:\n        /* \"#utility.yul\":13442:13581   */\n      swap1\n      pop\n        /* \"#utility.yul\":13169:13588   */\n      swap2\n      swap1\n      pop\n      jump\t// out\n        /* \"#utility.yul\":13594:13814   */\n    tag_134:\n        /* \"#utility.yul\":13734:13768   */\n      0x4f6e6c7920746865207475746f722063616e206973737565206120726566756e\n        /* \"#utility.yul\":13730:13731   */\n      0x00\n        /* \"#utility.yul\":13722:13728   */\n      dup3\n        /* \"#utility.yul\":13718:13732   */\n      add\n        /* \"#utility.yul\":13711:13769   */\n      mstore\n        /* \"#utility.yul\":13803:13806   */\n      0x6400000000000000000000000000000000000000000000000000000000000000\n        /* \"#utility.yul\":13798:13800   */\n      0x20\n        /* \"#utility.yul\":13790:13796   */\n      dup3\n        /* \"#utility.yul\":13786:13801   */\n      add\n        /* \"#utility.yul\":13779:13807   */\n      mstore\n        /* \"#utility.yul\":13594:13814   */\n      pop\n      jump\t// out\n        /* \"#utility.yul\":13820:14186   */\n    tag_135:\n        /* \"#utility.yul\":13962:13965   */\n      0x00\n        /* \"#utility.yul\":13983:14050   */\n      tag_274\n        /* \"#utility.yul\":14047:14049   */\n      0x21\n        /* \"#utility.yul\":14042:14045   */\n      dup4\n        /* \"#utility.yul\":13983:14050   */\n      tag_116\n      jump\t// in\n    tag_274:\n        /* \"#utility.yul\":13976:14050   */\n      swap2\n      pop\n        /* \"#utility.yul\":14059:14152   */\n      tag_275\n        /* \"#utility.yul\":14148:14151   */\n      dup3\n        /* \"#utility.yul\":14059:14152   */\n      tag_134\n      jump\t// in\n    tag_275:\n        /* \"#utility.yul\":14177:14179   */\n      0x40\n        /* \"#utility.yul\":14172:14175   */\n      dup3\n        /* \"#utility.yul\":14168:14180   */\n      add\n        /* \"#utility.yul\":14161:14180   */\n      swap1\n      pop\n        /* \"#utility.yul\":13820:14186   */\n      swap2\n      swap1\n      pop\n      jump\t// out\n        /* \"#utility.yul\":14192:14611   */\n    tag_85:\n        /* \"#utility.yul\":14358:14362   */\n      0x00\n        /* \"#utility.yul\":14396:14398   */\n      0x20\n        /* \"#utility.yul\":14385:14394   */\n      dup3\n        /* \"#utility.yul\":14381:14399   */\n      add\n        /* \"#utility.yul\":14373:14399   */\n      swap1\n      pop\n        /* \"#utility.yul\":14445:14454   */\n      dup2\n        /* \"#utility.yul\":14439:14443   */\n      dup2\n        /* \"#utility.yul\":14435:14455   */\n      sub\n        /* \"#utility.yul\":14431:14432   */\n      0x00\n        /* \"#utility.yul\":14420:14429   */\n      dup4\n        /* \"#utility.yul\":14416:14433   */\n      add\n        /* \"#utility.yul\":14409:14456   */\n      mstore\n        /* \"#utility.yul\":14473:14604   */\n      tag_277\n        /* \"#utility.yul\":14599:14603   */\n      dup2\n        /* \"#utility.yul\":14473:14604   */\n      tag_135\n      jump\t// in\n    tag_277:\n        /* \"#utility.yul\":14465:14604   */\n      swap1\n      pop\n        /* \"#utility.yul\":14192:14611   */\n      swap2\n      swap1\n      pop\n      jump\t// out\n        /* \"#utility.yul\":14617:14842   */\n    tag_136:\n        /* \"#utility.yul\":14757:14791   */\n      0x43616e6e6f7420726566756e642061667465722073657373696f6e20636f6d70\n        /* \"#utility.yul\":14753:14754   */\n      0x00\n        /* \"#utility.yul\":14745:14751   */\n      dup3\n        /* \"#utility.yul\":14741:14755   */\n      add\n        /* \"#utility.yul\":14734:14792   */\n      mstore\n        /* \"#utility.yul\":14826:14834   */\n      0x6c6574696f6e0000000000000000000000000000000000000000000000000000\n        /* \"#utility.yul\":14821:14823   */\n      0x20\n        /* \"#utility.yul\":14813:14819   */\n      dup3\n        /* \"#utility.yul\":14809:14824   */\n      add\n        /* \"#utility.yul\":14802:14835   */\n      mstore\n        /* \"#utility.yul\":14617:14842   */\n      pop\n      jump\t// out\n        /* \"#utility.yul\":14848:15214   */\n    tag_137:\n        /* \"#utility.yul\":14990:14993   */\n      0x00\n        /* \"#utility.yul\":15011:15078   */\n      tag_280\n        /* \"#utility.yul\":15075:15077   */\n      0x26\n        /* \"#utility.yul\":15070:15073   */\n      dup4\n        /* \"#utility.yul\":15011:15078   */\n      tag_116\n      jump\t// in\n    tag_280:\n        /* \"#utility.yul\":15004:15078   */\n      swap2\n      pop\n        /* \"#utility.yul\":15087:15180   */\n      tag_281\n        /* \"#utility.yul\":15176:15179   */\n      dup3\n        /* \"#utility.yul\":15087:15180   */\n      tag_136\n      jump\t// in\n    tag_281:\n        /* \"#utility.yul\":15205:15207   */\n      0x40\n        /* \"#utility.yul\":15200:15203   */\n      dup3\n        /* \"#utility.yul\":15196:15208   */\n      add\n        /* \"#utility.yul\":15189:15208   */\n      swap1\n      pop\n        /* \"#utility.yul\":14848:15214   */\n      swap2\n      swap1\n      pop\n      jump\t// out\n        /* \"#utility.yul\":15220:15639   */\n    tag_88:\n        /* \"#utility.yul\":15386:15390   */\n      0x00\n        /* \"#utility.yul\":15424:15426   */\n      0x20\n        /* \"#utility.yul\":15413:15422   */\n      dup3\n        /* \"#utility.yul\":15409:15427   */\n      add\n        /* \"#utility.yul\":15401:15427   */\n      swap1\n      pop\n        /* \"#utility.yul\":15473:15482   */\n      dup2\n        /* \"#utility.yul\":15467:15471   */\n      dup2\n        /* \"#utility.yul\":15463:15483   */\n      sub\n        /* \"#utility.yul\":15459:15460   */\n      0x00\n        /* \"#utility.yul\":15448:15457   */\n      dup4\n        /* \"#utility.yul\":15444:15461   */\n      add\n        /* \"#utility.yul\":15437:15484   */\n      mstore\n        /* \"#utility.yul\":15501:15632   */\n      tag_283\n        /* \"#utility.yul\":15627:15631   */\n      dup2\n        /* \"#utility.yul\":15501:15632   */\n      tag_137\n      jump\t// in\n    tag_283:\n        /* \"#utility.yul\":15493:15632   */\n      swap1\n      pop\n        /* \"#utility.yul\":15220:15639   */\n      swap2\n      swap1\n      pop\n      jump\t// out\n        /* \"#utility.yul\":15645:15819   */\n    tag_138:\n        /* \"#utility.yul\":15785:15811   */\n      0x53657373696f6e20616c726561647920726566756e6465640000000000000000\n        /* \"#utility.yul\":15781:15782   */\n      0x00\n        /* \"#utility.yul\":15773:15779   */\n      dup3\n        /* \"#utility.yul\":15769:15783   */\n      add\n        /* \"#utility.yul\":15762:15812   */\n      mstore\n        /* \"#utility.yul\":15645:15819   */\n      pop\n      jump\t// out\n        /* \"#utility.yul\":15825:16191   */\n    tag_139:\n        /* \"#utility.yul\":15967:15970   */\n      0x00\n        /* \"#utility.yul\":15988:16055   */\n      tag_286\n        /* \"#utility.yul\":16052:16054   */\n      0x18\n        /* \"#utility.yul\":16047:16050   */\n      dup4\n        /* \"#utility.yul\":15988:16055   */\n      tag_116\n      jump\t// in\n    tag_286:\n        /* \"#utility.yul\":15981:16055   */\n      swap2\n      pop\n        /* \"#utility.yul\":16064:16157   */\n      tag_287\n        /* \"#utility.yul\":16153:16156   */\n      dup3\n        /* \"#utility.yul\":16064:16157   */\n      tag_138\n      jump\t// in\n    tag_287:\n        /* \"#utility.yul\":16182:16184   */\n      0x20\n        /* \"#utility.yul\":16177:16180   */\n      dup3\n        /* \"#utility.yul\":16173:16185   */\n      add\n        /* \"#utility.yul\":16166:16185   */\n      swap1\n      pop\n        /* \"#utility.yul\":15825:16191   */\n      swap2\n      swap1\n      pop\n      jump\t// out\n        /* \"#utility.yul\":16197:16616   */\n    tag_91:\n        /* \"#utility.yul\":16363:16367   */\n      0x00\n        /* \"#utility.yul\":16401:16403   */\n      0x20\n        /* \"#utility.yul\":16390:16399   */\n      dup3\n        /* \"#utility.yul\":16386:16404   */\n      add\n        /* \"#utility.yul\":16378:16404   */\n      swap1\n      pop\n        /* \"#utility.yul\":16450:16459   */\n      dup2\n        /* \"#utility.yul\":16444:16448   */\n      dup2\n        /* \"#utility.yul\":16440:16460   */\n      sub\n        /* \"#utility.yul\":16436:16437   */\n      0x00\n        /* \"#utility.yul\":16425:16434   */\n      dup4\n        /* \"#utility.yul\":16421:16438   */\n      add\n        /* \"#utility.yul\":16414:16461   */\n      mstore\n        /* \"#utility.yul\":16478:16609   */\n      tag_289\n        /* \"#utility.yul\":16604:16608   */\n      dup2\n        /* \"#utility.yul\":16478:16609   */\n      tag_139\n      jump\t// in\n    tag_289:\n        /* \"#utility.yul\":16470:16609   */\n      swap1\n      pop\n        /* \"#utility.yul\":16197:16616   */\n      swap2\n      swap1\n      pop\n      jump\t// out\n\n    auxdata: 0xa2646970667358221220c31cdd0ed8020230aa3a2768302432a644a9a63e3d212af8939e13963907866b64736f6c634300081a0033\n}\n",
				"bytecode": {
					"linkReferences": {},
					"object": "608060405234801561000f575f80fd5b50604051611519380380611519833981810160405281019061003191906100d4565b805f806101000a81548173ffffffffffffffffffffffffffffffffffffffff021916908373ffffffffffffffffffffffffffffffffffffffff160217905550506100ff565b5f80fd5b5f73ffffffffffffffffffffffffffffffffffffffff82169050919050565b5f6100a38261007a565b9050919050565b6100b381610099565b81146100bd575f80fd5b50565b5f815190506100ce816100aa565b92915050565b5f602082840312156100e9576100e8610076565b5b5f6100f6848285016100c0565b91505092915050565b61140d8061010c5f395ff3fe608060405234801561000f575f80fd5b5060043610610060575f3560e01c806301c7aea4146100645780631f5754c0146100805780633013ce291461009c5780635a29352d146100ba57806383c4b7a3146100d85780639b9aee771461010d575b5f80fd5b61007e60048036038101906100799190610bd5565b610129565b005b61009a60048036038101906100959190610c13565b610531565b005b6100a461082b565b6040516100b19190610c99565b60405180910390f35b6100c261084e565b6040516100cf9190610cc1565b60405180910390f35b6100f260048036038101906100ed9190610c13565b610854565b60405161010496959493929190610d03565b60405180910390f35b61012760048036038101906101229190610c13565b6108e3565b005b5f811161016b576040517f08c379a000000000000000000000000000000000000000000000000000000000815260040161016290610de2565b60405180910390fd5b3373ffffffffffffffffffffffffffffffffffffffff168273ffffffffffffffffffffffffffffffffffffffff16036101d9576040517f08c379a00000000000000000000000000000000000000000000000000000000081526004016101d090610e70565b60405180910390fd5b5f6002826101e79190610ee8565b9050805f8054906101000a900473ffffffffffffffffffffffffffffffffffffffff1673ffffffffffffffffffffffffffffffffffffffff166370a08231336040518263ffffffff1660e01b81526004016102429190610f18565b602060405180830381865afa15801561025d573d5f803e3d5ffd5b505050506040513d601f19601f820116820180604052508101906102819190610f45565b10156102c2576040517f08c379a00000000000000000000000000000000000000000000000000000000081526004016102b990610fba565b60405180910390fd5b5f8054906101000a900473ffffffffffffffffffffffffffffffffffffffff1673ffffffffffffffffffffffffffffffffffffffff1663a9059cbb30836040518363ffffffff1660e01b815260040161031c929190610fd8565b6020604051808303815f875af1158015610338573d5f803e3d5ffd5b505050506040513d601f19601f8201168201806040525081019061035c9190611029565b505f60025f81548092919061037090611054565b9190505590506040518060c001604052808573ffffffffffffffffffffffffffffffffffffffff1681526020013373ffffffffffffffffffffffffffffffffffffffff1681526020018481526020018381526020015f151581526020015f151581525060015f8381526020019081526020015f205f820151815f015f6101000a81548173ffffffffffffffffffffffffffffffffffffffff021916908373ffffffffffffffffffffffffffffffffffffffff1602179055506020820151816001015f6101000a81548173ffffffffffffffffffffffffffffffffffffffff021916908373ffffffffffffffffffffffffffffffffffffffff16021790555060408201518160020155606082015181600301556080820151816004015f6101000a81548160ff02191690831515021790555060a08201518160040160016101000a81548160ff0219169083151502179055509050508373ffffffffffffffffffffffffffffffffffffffff163373ffffffffffffffffffffffffffffffffffffffff167f467d69c5cf78cf9047a33f50b83d44465d0f438ba055fd5b64c7c0e86bc4a994838660405161052392919061109b565b60405180910390a350505050565b5f60015f8381526020019081526020015f2090503373ffffffffffffffffffffffffffffffffffffffff16815f015f9054906101000a900473ffffffffffffffffffffffffffffffffffffffff1673ffffffffffffffffffffffffffffffffffffffff16146105d5576040517f08c379a00000000000000000000000000000000000000000000000000000000081526004016105cc90611132565b60405180910390fd5b806004015f9054906101000a900460ff1615610626576040517f08c379a000000000000000000000000000000000000000000000000000000000815260040161061d9061119a565b60405180910390fd5b6001816004015f6101000a81548160ff0219169083151502179055505f8160030154826002015461065791906111b8565b9050805f8054906101000a900473ffffffffffffffffffffffffffffffffffffffff1673ffffffffffffffffffffffffffffffffffffffff166370a08231306040518263ffffffff1660e01b81526004016106b29190610f18565b602060405180830381865afa1580156106cd573d5f803e3d5ffd5b505050506040513d601f19601f820116820180604052508101906106f19190610f45565b1015610732576040517f08c379a000000000000000000000000000000000000000000000000000000000815260040161072990611235565b60405180910390fd5b5f8054906101000a900473ffffffffffffffffffffffffffffffffffffffff1673ffffffffffffffffffffffffffffffffffffffff1663a9059cbb835f015f9054906101000a900473ffffffffffffffffffffffffffffffffffffffff16836040518363ffffffff1660e01b81526004016107ae929190610fd8565b6020604051808303815f875af11580156107ca573d5f803e3d5ffd5b505050506040513d601f19601f820116820180604052508101906107ee9190611029565b507fa4030ee788364ad2db0b246a828edf422efb9e2f4a839c21723971d808b4323c8360405161081e9190610cc1565b60405180910390a1505050565b5f8054906101000a900473ffffffffffffffffffffffffffffffffffffffff1681565b60025481565b6001602052805f5260405f205f91509050805f015f9054906101000a900473ffffffffffffffffffffffffffffffffffffffff1690806001015f9054906101000a900473ffffffffffffffffffffffffffffffffffffffff1690806002015490806003015490806004015f9054906101000a900460ff16908060040160019054906101000a900460ff16905086565b5f60015f8381526020019081526020015f2090503373ffffffffffffffffffffffffffffffffffffffff16815f015f9054906101000a900473ffffffffffffffffffffffffffffffffffffffff1673ffffffffffffffffffffffffffffffffffffffff1614610987576040517f08c379a000000000000000000000000000000000000000000000000000000000815260040161097e906112c3565b60405180910390fd5b806004015f9054906101000a900460ff16156109d8576040517f08c379a00000000000000000000000000000000000000000000000000000000081526004016109cf90611351565b60405180910390fd5b8060040160019054906101000a900460ff1615610a2a576040517f08c379a0000000000000000000000000000000000000000000000000000000008152600401610a21906113b9565b60405180910390fd5b5f8054906101000a900473ffffffffffffffffffffffffffffffffffffffff1673ffffffffffffffffffffffffffffffffffffffff1663a9059cbb826001015f9054906101000a900473ffffffffffffffffffffffffffffffffffffffff1683600301546040518363ffffffff1660e01b8152600401610aab929190610fd8565b6020604051808303815f875af1158015610ac7573d5f803e3d5ffd5b505050506040513d601f19601f82011682018060405250810190610aeb9190611029565b5060018160040160016101000a81548160ff0219169083151502179055507fd1f3779e629abfcde92c489a6a1077c9f2a0ef32f46e7aa06e8edc4c4382f15482604051610b389190610cc1565b60405180910390a15050565b5f80fd5b5f73ffffffffffffffffffffffffffffffffffffffff82169050919050565b5f610b7182610b48565b9050919050565b610b8181610b67565b8114610b8b575f80fd5b50565b5f81359050610b9c81610b78565b92915050565b5f819050919050565b610bb481610ba2565b8114610bbe575f80fd5b50565b5f81359050610bcf81610bab565b92915050565b5f8060408385031215610beb57610bea610b44565b5b5f610bf885828601610b8e565b9250506020610c0985828601610bc1565b9150509250929050565b5f60208284031215610c2857610c27610b44565b5b5f610c3584828501610bc1565b91505092915050565b5f819050919050565b5f610c61610c5c610c5784610b48565b610c3e565b610b48565b9050919050565b5f610c7282610c47565b9050919050565b5f610c8382610c68565b9050919050565b610c9381610c79565b82525050565b5f602082019050610cac5f830184610c8a565b92915050565b610cbb81610ba2565b82525050565b5f602082019050610cd45f830184610cb2565b92915050565b610ce381610b67565b82525050565b5f8115159050919050565b610cfd81610ce9565b82525050565b5f60c082019050610d165f830189610cda565b610d236020830188610cda565b610d306040830187610cb2565b610d3d6060830186610cb2565b610d4a6080830185610cf4565b610d5760a0830184610cf4565b979650505050505050565b5f82825260208201905092915050565b7f53657373696f6e20666565206d7573742062652067726561746572207468616e5f8201527f2030000000000000000000000000000000000000000000000000000000000000602082015250565b5f610dcc602283610d62565b9150610dd782610d72565b604082019050919050565b5f6020820190508181035f830152610df981610dc0565b9050919050565b7f596f752063616e6e6f7420626f6f6b20612073657373696f6e207769746820795f8201527f6f757273656c6600000000000000000000000000000000000000000000000000602082015250565b5f610e5a602783610d62565b9150610e6582610e00565b604082019050919050565b5f6020820190508181035f830152610e8781610e4e565b9050919050565b7f4e487b71000000000000000000000000000000000000000000000000000000005f52601260045260245ffd5b7f4e487b71000000000000000000000000000000000000000000000000000000005f52601160045260245ffd5b5f610ef282610ba2565b9150610efd83610ba2565b925082610f0d57610f0c610e8e565b5b828204905092915050565b5f602082019050610f2b5f830184610cda565b92915050565b5f81519050610f3f81610bab565b92915050565b5f60208284031215610f5a57610f59610b44565b5b5f610f6784828501610f31565b91505092915050565b7f496e73756666696369656e742062616c616e636520666f72206465706f7369745f82015250565b5f610fa4602083610d62565b9150610faf82610f70565b602082019050919050565b5f6020820190508181035f830152610fd181610f98565b9050919050565b5f604082019050610feb5f830185610cda565b610ff86020830184610cb2565b9392505050565b61100881610ce9565b8114611012575f80fd5b50565b5f8151905061102381610fff565b92915050565b5f6020828403121561103e5761103d610b44565b5b5f61104b84828501611015565b91505092915050565b5f61105e82610ba2565b91507fffffffffffffffffffffffffffffffffffffffffffffffffffffffffffffffff82036110905761108f610ebb565b5b600182019050919050565b5f6040820190506110ae5f830185610cb2565b6110bb6020830184610cb2565b9392505050565b7f4f6e6c7920746865207475746f722063616e20636f6d706c65746520746865205f8201527f73657373696f6e00000000000000000000000000000000000000000000000000602082015250565b5f61111c602783610d62565b9150611127826110c2565b604082019050919050565b5f6020820190508181035f83015261114981611110565b9050919050565b7f53657373696f6e20616c726561647920636f6d706c65746564000000000000005f82015250565b5f611184601983610d62565b915061118f82611150565b602082019050919050565b5f6020820190508181035f8301526111b181611178565b9050919050565b5f6111c282610ba2565b91506111cd83610ba2565b92508282039050818111156111e5576111e4610ebb565b5b92915050565b7f496e73756666696369656e7420636f6e74726163742062616c616e63650000005f82015250565b5f61121f601d83610d62565b915061122a826111eb565b602082019050919050565b5f6020820190508181035f83015261124c81611213565b9050919050565b7f4f6e6c7920746865207475746f722063616e206973737565206120726566756e5f8201527f6400000000000000000000000000000000000000000000000000000000000000602082015250565b5f6112ad602183610d62565b91506112b882611253565b604082019050919050565b5f6020820190508181035f8301526112da816112a1565b9050919050565b7f43616e6e6f7420726566756e642061667465722073657373696f6e20636f6d705f8201527f6c6574696f6e0000000000000000000000000000000000000000000000000000602082015250565b5f61133b602683610d62565b9150611346826112e1565b604082019050919050565b5f6020820190508181035f8301526113688161132f565b9050919050565b7f53657373696f6e20616c726561647920726566756e64656400000000000000005f82015250565b5f6113a3601883610d62565b91506113ae8261136f565b602082019050919050565b5f6020820190508181035f8301526113d081611397565b905091905056fea2646970667358221220c31cdd0ed8020230aa3a2768302432a644a9a63e3d212af8939e13963907866b64736f6c634300081a0033",
					"opcodes": "PUSH1 0x80 PUSH1 0x40 MSTORE CALLVALUE DUP1 ISZERO PUSH2 0xF JUMPI PUSH0 DUP1 REVERT JUMPDEST POP PUSH1 0x40 MLOAD PUSH2 0x1519 CODESIZE SUB DUP1 PUSH2 0x1519 DUP4 CODECOPY DUP2 DUP2 ADD PUSH1 0x40 MSTORE DUP2 ADD SWAP1 PUSH2 0x31 SWAP2 SWAP1 PUSH2 0xD4 JUMP JUMPDEST DUP1 PUSH0 DUP1 PUSH2 0x100 EXP DUP2 SLOAD DUP2 PUSH20 0xFFFFFFFFFFFFFFFFFFFFFFFFFFFFFFFFFFFFFFFF MUL NOT AND SWAP1 DUP4 PUSH20 0xFFFFFFFFFFFFFFFFFFFFFFFFFFFFFFFFFFFFFFFF AND MUL OR SWAP1 SSTORE POP POP PUSH2 0xFF JUMP JUMPDEST PUSH0 DUP1 REVERT JUMPDEST PUSH0 PUSH20 0xFFFFFFFFFFFFFFFFFFFFFFFFFFFFFFFFFFFFFFFF DUP3 AND SWAP1 POP SWAP2 SWAP1 POP JUMP JUMPDEST PUSH0 PUSH2 0xA3 DUP3 PUSH2 0x7A JUMP JUMPDEST SWAP1 POP SWAP2 SWAP1 POP JUMP JUMPDEST PUSH2 0xB3 DUP2 PUSH2 0x99 JUMP JUMPDEST DUP2 EQ PUSH2 0xBD JUMPI PUSH0 DUP1 REVERT JUMPDEST POP JUMP JUMPDEST PUSH0 DUP2 MLOAD SWAP1 POP PUSH2 0xCE DUP2 PUSH2 0xAA JUMP JUMPDEST SWAP3 SWAP2 POP POP JUMP JUMPDEST PUSH0 PUSH1 0x20 DUP3 DUP5 SUB SLT ISZERO PUSH2 0xE9 JUMPI PUSH2 0xE8 PUSH2 0x76 JUMP JUMPDEST JUMPDEST PUSH0 PUSH2 0xF6 DUP5 DUP3 DUP6 ADD PUSH2 0xC0 JUMP JUMPDEST SWAP2 POP POP SWAP3 SWAP2 POP POP JUMP JUMPDEST PUSH2 0x140D DUP1 PUSH2 0x10C PUSH0 CODECOPY PUSH0 RETURN INVALID PUSH1 0x80 PUSH1 0x40 MSTORE CALLVALUE DUP1 ISZERO PUSH2 0xF JUMPI PUSH0 DUP1 REVERT JUMPDEST POP PUSH1 0x4 CALLDATASIZE LT PUSH2 0x60 JUMPI PUSH0 CALLDATALOAD PUSH1 0xE0 SHR DUP1 PUSH4 0x1C7AEA4 EQ PUSH2 0x64 JUMPI DUP1 PUSH4 0x1F5754C0 EQ PUSH2 0x80 JUMPI DUP1 PUSH4 0x3013CE29 EQ PUSH2 0x9C JUMPI DUP1 PUSH4 0x5A29352D EQ PUSH2 0xBA JUMPI DUP1 PUSH4 0x83C4B7A3 EQ PUSH2 0xD8 JUMPI DUP1 PUSH4 0x9B9AEE77 EQ PUSH2 0x10D JUMPI JUMPDEST PUSH0 DUP1 REVERT JUMPDEST PUSH2 0x7E PUSH1 0x4 DUP1 CALLDATASIZE SUB DUP2 ADD SWAP1 PUSH2 0x79 SWAP2 SWAP1 PUSH2 0xBD5 JUMP JUMPDEST PUSH2 0x129 JUMP JUMPDEST STOP JUMPDEST PUSH2 0x9A PUSH1 0x4 DUP1 CALLDATASIZE SUB DUP2 ADD SWAP1 PUSH2 0x95 SWAP2 SWAP1 PUSH2 0xC13 JUMP JUMPDEST PUSH2 0x531 JUMP JUMPDEST STOP JUMPDEST PUSH2 0xA4 PUSH2 0x82B JUMP JUMPDEST PUSH1 0x40 MLOAD PUSH2 0xB1 SWAP2 SWAP1 PUSH2 0xC99 JUMP JUMPDEST PUSH1 0x40 MLOAD DUP1 SWAP2 SUB SWAP1 RETURN JUMPDEST PUSH2 0xC2 PUSH2 0x84E JUMP JUMPDEST PUSH1 0x40 MLOAD PUSH2 0xCF SWAP2 SWAP1 PUSH2 0xCC1 JUMP JUMPDEST PUSH1 0x40 MLOAD DUP1 SWAP2 SUB SWAP1 RETURN JUMPDEST PUSH2 0xF2 PUSH1 0x4 DUP1 CALLDATASIZE SUB DUP2 ADD SWAP1 PUSH2 0xED SWAP2 SWAP1 PUSH2 0xC13 JUMP JUMPDEST PUSH2 0x854 JUMP JUMPDEST PUSH1 0x40 MLOAD PUSH2 0x104 SWAP7 SWAP6 SWAP5 SWAP4 SWAP3 SWAP2 SWAP1 PUSH2 0xD03 JUMP JUMPDEST PUSH1 0x40 MLOAD DUP1 SWAP2 SUB SWAP1 RETURN JUMPDEST PUSH2 0x127 PUSH1 0x4 DUP1 CALLDATASIZE SUB DUP2 ADD SWAP1 PUSH2 0x122 SWAP2 SWAP1 PUSH2 0xC13 JUMP JUMPDEST PUSH2 0x8E3 JUMP JUMPDEST STOP JUMPDEST PUSH0 DUP2 GT PUSH2 0x16B JUMPI PUSH1 0x40 MLOAD PUSH32 0x8C379A000000000000000000000000000000000000000000000000000000000 DUP2 MSTORE PUSH1 0x4 ADD PUSH2 0x162 SWAP1 PUSH2 0xDE2 JUMP JUMPDEST PUSH1 0x40 MLOAD DUP1 SWAP2 SUB SWAP1 REVERT JUMPDEST CALLER PUSH20 0xFFFFFFFFFFFFFFFFFFFFFFFFFFFFFFFFFFFFFFFF AND DUP3 PUSH20 0xFFFFFFFFFFFFFFFFFFFFFFFFFFFFFFFFFFFFFFFF AND SUB PUSH2 0x1D9 JUMPI PUSH1 0x40 MLOAD PUSH32 0x8C379A000000000000000000000000000000000000000000000000000000000 DUP2 MSTORE PUSH1 0x4 ADD PUSH2 0x1D0 SWAP1 PUSH2 0xE70 JUMP JUMPDEST PUSH1 0x40 MLOAD DUP1 SWAP2 SUB SWAP1 REVERT JUMPDEST PUSH0 PUSH1 0x2 DUP3 PUSH2 0x1E7 SWAP2 SWAP1 PUSH2 0xEE8 JUMP JUMPDEST SWAP1 POP DUP1 PUSH0 DUP1 SLOAD SWAP1 PUSH2 0x100 EXP SWAP1 DIV PUSH20 0xFFFFFFFFFFFFFFFFFFFFFFFFFFFFFFFFFFFFFFFF AND PUSH20 0xFFFFFFFFFFFFFFFFFFFFFFFFFFFFFFFFFFFFFFFF AND PUSH4 0x70A08231 CALLER PUSH1 0x40 MLOAD DUP3 PUSH4 0xFFFFFFFF AND PUSH1 0xE0 SHL DUP2 MSTORE PUSH1 0x4 ADD PUSH2 0x242 SWAP2 SWAP1 PUSH2 0xF18 JUMP JUMPDEST PUSH1 0x20 PUSH1 0x40 MLOAD DUP1 DUP4 SUB DUP2 DUP7 GAS STATICCALL ISZERO DUP1 ISZERO PUSH2 0x25D JUMPI RETURNDATASIZE PUSH0 DUP1 RETURNDATACOPY RETURNDATASIZE PUSH0 REVERT JUMPDEST POP POP POP POP PUSH1 0x40 MLOAD RETURNDATASIZE PUSH1 0x1F NOT PUSH1 0x1F DUP3 ADD AND DUP3 ADD DUP1 PUSH1 0x40 MSTORE POP DUP2 ADD SWAP1 PUSH2 0x281 SWAP2 SWAP1 PUSH2 0xF45 JUMP JUMPDEST LT ISZERO PUSH2 0x2C2 JUMPI PUSH1 0x40 MLOAD PUSH32 0x8C379A000000000000000000000000000000000000000000000000000000000 DUP2 MSTORE PUSH1 0x4 ADD PUSH2 0x2B9 SWAP1 PUSH2 0xFBA JUMP JUMPDEST PUSH1 0x40 MLOAD DUP1 SWAP2 SUB SWAP1 REVERT JUMPDEST PUSH0 DUP1 SLOAD SWAP1 PUSH2 0x100 EXP SWAP1 DIV PUSH20 0xFFFFFFFFFFFFFFFFFFFFFFFFFFFFFFFFFFFFFFFF AND PUSH20 0xFFFFFFFFFFFFFFFFFFFFFFFFFFFFFFFFFFFFFFFF AND PUSH4 0xA9059CBB ADDRESS DUP4 PUSH1 0x40 MLOAD DUP4 PUSH4 0xFFFFFFFF AND PUSH1 0xE0 SHL DUP2 MSTORE PUSH1 0x4 ADD PUSH2 0x31C SWAP3 SWAP2 SWAP1 PUSH2 0xFD8 JUMP JUMPDEST PUSH1 0x20 PUSH1 0x40 MLOAD DUP1 DUP4 SUB DUP2 PUSH0 DUP8 GAS CALL ISZERO DUP1 ISZERO PUSH2 0x338 JUMPI RETURNDATASIZE PUSH0 DUP1 RETURNDATACOPY RETURNDATASIZE PUSH0 REVERT JUMPDEST POP POP POP POP PUSH1 0x40 MLOAD RETURNDATASIZE PUSH1 0x1F NOT PUSH1 0x1F DUP3 ADD AND DUP3 ADD DUP1 PUSH1 0x40 MSTORE POP DUP2 ADD SWAP1 PUSH2 0x35C SWAP2 SWAP1 PUSH2 0x1029 JUMP JUMPDEST POP PUSH0 PUSH1 0x2 PUSH0 DUP2 SLOAD DUP1 SWAP3 SWAP2 SWAP1 PUSH2 0x370 SWAP1 PUSH2 0x1054 JUMP JUMPDEST SWAP2 SWAP1 POP SSTORE SWAP1 POP PUSH1 0x40 MLOAD DUP1 PUSH1 0xC0 ADD PUSH1 0x40 MSTORE DUP1 DUP6 PUSH20 0xFFFFFFFFFFFFFFFFFFFFFFFFFFFFFFFFFFFFFFFF AND DUP2 MSTORE PUSH1 0x20 ADD CALLER PUSH20 0xFFFFFFFFFFFFFFFFFFFFFFFFFFFFFFFFFFFFFFFF AND DUP2 MSTORE PUSH1 0x20 ADD DUP5 DUP2 MSTORE PUSH1 0x20 ADD DUP4 DUP2 MSTORE PUSH1 0x20 ADD PUSH0 ISZERO ISZERO DUP2 MSTORE PUSH1 0x20 ADD PUSH0 ISZERO ISZERO DUP2 MSTORE POP PUSH1 0x1 PUSH0 DUP4 DUP2 MSTORE PUSH1 0x20 ADD SWAP1 DUP2 MSTORE PUSH1 0x20 ADD PUSH0 KECCAK256 PUSH0 DUP3 ADD MLOAD DUP2 PUSH0 ADD PUSH0 PUSH2 0x100 EXP DUP2 SLOAD DUP2 PUSH20 0xFFFFFFFFFFFFFFFFFFFFFFFFFFFFFFFFFFFFFFFF MUL NOT AND SWAP1 DUP4 PUSH20 0xFFFFFFFFFFFFFFFFFFFFFFFFFFFFFFFFFFFFFFFF AND MUL OR SWAP1 SSTORE POP PUSH1 0x20 DUP3 ADD MLOAD DUP2 PUSH1 0x1 ADD PUSH0 PUSH2 0x100 EXP DUP2 SLOAD DUP2 PUSH20 0xFFFFFFFFFFFFFFFFFFFFFFFFFFFFFFFFFFFFFFFF MUL NOT AND SWAP1 DUP4 PUSH20 0xFFFFFFFFFFFFFFFFFFFFFFFFFFFFFFFFFFFFFFFF AND MUL OR SWAP1 SSTORE POP PUSH1 0x40 DUP3 ADD MLOAD DUP2 PUSH1 0x2 ADD SSTORE PUSH1 0x60 DUP3 ADD MLOAD DUP2 PUSH1 0x3 ADD SSTORE PUSH1 0x80 DUP3 ADD MLOAD DUP2 PUSH1 0x4 ADD PUSH0 PUSH2 0x100 EXP DUP2 SLOAD DUP2 PUSH1 0xFF MUL NOT AND SWAP1 DUP4 ISZERO ISZERO MUL OR SWAP1 SSTORE POP PUSH1 0xA0 DUP3 ADD MLOAD DUP2 PUSH1 0x4 ADD PUSH1 0x1 PUSH2 0x100 EXP DUP2 SLOAD DUP2 PUSH1 0xFF MUL NOT AND SWAP1 DUP4 ISZERO ISZERO MUL OR SWAP1 SSTORE POP SWAP1 POP POP DUP4 PUSH20 0xFFFFFFFFFFFFFFFFFFFFFFFFFFFFFFFFFFFFFFFF AND CALLER PUSH20 0xFFFFFFFFFFFFFFFFFFFFFFFFFFFFFFFFFFFFFFFF AND PUSH32 0x467D69C5CF78CF9047A33F50B83D44465D0F438BA055FD5B64C7C0E86BC4A994 DUP4 DUP7 PUSH1 0x40 MLOAD PUSH2 0x523 SWAP3 SWAP2 SWAP1 PUSH2 0x109B JUMP JUMPDEST PUSH1 0x40 MLOAD DUP1 SWAP2 SUB SWAP1 LOG3 POP POP POP POP JUMP JUMPDEST PUSH0 PUSH1 0x1 PUSH0 DUP4 DUP2 MSTORE PUSH1 0x20 ADD SWAP1 DUP2 MSTORE PUSH1 0x20 ADD PUSH0 KECCAK256 SWAP1 POP CALLER PUSH20 0xFFFFFFFFFFFFFFFFFFFFFFFFFFFFFFFFFFFFFFFF AND DUP2 PUSH0 ADD PUSH0 SWAP1 SLOAD SWAP1 PUSH2 0x100 EXP SWAP1 DIV PUSH20 0xFFFFFFFFFFFFFFFFFFFFFFFFFFFFFFFFFFFFFFFF AND PUSH20 0xFFFFFFFFFFFFFFFFFFFFFFFFFFFFFFFFFFFFFFFF AND EQ PUSH2 0x5D5 JUMPI PUSH1 0x40 MLOAD PUSH32 0x8C379A000000000000000000000000000000000000000000000000000000000 DUP2 MSTORE PUSH1 0x4 ADD PUSH2 0x5CC SWAP1 PUSH2 0x1132 JUMP JUMPDEST PUSH1 0x40 MLOAD DUP1 SWAP2 SUB SWAP1 REVERT JUMPDEST DUP1 PUSH1 0x4 ADD PUSH0 SWAP1 SLOAD SWAP1 PUSH2 0x100 EXP SWAP1 DIV PUSH1 0xFF AND ISZERO PUSH2 0x626 JUMPI PUSH1 0x40 MLOAD PUSH32 0x8C379A000000000000000000000000000000000000000000000000000000000 DUP2 MSTORE PUSH1 0x4 ADD PUSH2 0x61D SWAP1 PUSH2 0x119A JUMP JUMPDEST PUSH1 0x40 MLOAD DUP1 SWAP2 SUB SWAP1 REVERT JUMPDEST PUSH1 0x1 DUP2 PUSH1 0x4 ADD PUSH0 PUSH2 0x100 EXP DUP2 SLOAD DUP2 PUSH1 0xFF MUL NOT AND SWAP1 DUP4 ISZERO ISZERO MUL OR SWAP1 SSTORE POP PUSH0 DUP2 PUSH1 0x3 ADD SLOAD DUP3 PUSH1 0x2 ADD SLOAD PUSH2 0x657 SWAP2 SWAP1 PUSH2 0x11B8 JUMP JUMPDEST SWAP1 POP DUP1 PUSH0 DUP1 SLOAD SWAP1 PUSH2 0x100 EXP SWAP1 DIV PUSH20 0xFFFFFFFFFFFFFFFFFFFFFFFFFFFFFFFFFFFFFFFF AND PUSH20 0xFFFFFFFFFFFFFFFFFFFFFFFFFFFFFFFFFFFFFFFF AND PUSH4 0x70A08231 ADDRESS PUSH1 0x40 MLOAD DUP3 PUSH4 0xFFFFFFFF AND PUSH1 0xE0 SHL DUP2 MSTORE PUSH1 0x4 ADD PUSH2 0x6B2 SWAP2 SWAP1 PUSH2 0xF18 JUMP JUMPDEST PUSH1 0x20 PUSH1 0x40 MLOAD DUP1 DUP4 SUB DUP2 DUP7 GAS STATICCALL ISZERO DUP1 ISZERO PUSH2 0x6CD JUMPI RETURNDATASIZE PUSH0 DUP1 RETURNDATACOPY RETURNDATASIZE PUSH0 REVERT JUMPDEST POP POP POP POP PUSH1 0x40 MLOAD RETURNDATASIZE PUSH1 0x1F NOT PUSH1 0x1F DUP3 ADD AND DUP3 ADD DUP1 PUSH1 0x40 MSTORE POP DUP2 ADD SWAP1 PUSH2 0x6F1 SWAP2 SWAP1 PUSH2 0xF45 JUMP JUMPDEST LT ISZERO PUSH2 0x732 JUMPI PUSH1 0x40 MLOAD PUSH32 0x8C379A000000000000000000000000000000000000000000000000000000000 DUP2 MSTORE PUSH1 0x4 ADD PUSH2 0x729 SWAP1 PUSH2 0x1235 JUMP JUMPDEST PUSH1 0x40 MLOAD DUP1 SWAP2 SUB SWAP1 REVERT JUMPDEST PUSH0 DUP1 SLOAD SWAP1 PUSH2 0x100 EXP SWAP1 DIV PUSH20 0xFFFFFFFFFFFFFFFFFFFFFFFFFFFFFFFFFFFFFFFF AND PUSH20 0xFFFFFFFFFFFFFFFFFFFFFFFFFFFFFFFFFFFFFFFF AND PUSH4 0xA9059CBB DUP4 PUSH0 ADD PUSH0 SWAP1 SLOAD SWAP1 PUSH2 0x100 EXP SWAP1 DIV PUSH20 0xFFFFFFFFFFFFFFFFFFFFFFFFFFFFFFFFFFFFFFFF AND DUP4 PUSH1 0x40 MLOAD DUP4 PUSH4 0xFFFFFFFF AND PUSH1 0xE0 SHL DUP2 MSTORE PUSH1 0x4 ADD PUSH2 0x7AE SWAP3 SWAP2 SWAP1 PUSH2 0xFD8 JUMP JUMPDEST PUSH1 0x20 PUSH1 0x40 MLOAD DUP1 DUP4 SUB DUP2 PUSH0 DUP8 GAS CALL ISZERO DUP1 ISZERO PUSH2 0x7CA JUMPI RETURNDATASIZE PUSH0 DUP1 RETURNDATACOPY RETURNDATASIZE PUSH0 REVERT JUMPDEST POP POP POP POP PUSH1 0x40 MLOAD RETURNDATASIZE PUSH1 0x1F NOT PUSH1 0x1F DUP3 ADD AND DUP3 ADD DUP1 PUSH1 0x40 MSTORE POP DUP2 ADD SWAP1 PUSH2 0x7EE SWAP2 SWAP1 PUSH2 0x1029 JUMP JUMPDEST POP PUSH32 0xA4030EE788364AD2DB0B246A828EDF422EFB9E2F4A839C21723971D808B4323C DUP4 PUSH1 0x40 MLOAD PUSH2 0x81E SWAP2 SWAP1 PUSH2 0xCC1 JUMP JUMPDEST PUSH1 0x40 MLOAD DUP1 SWAP2 SUB SWAP1 LOG1 POP POP POP JUMP JUMPDEST PUSH0 DUP1 SLOAD SWAP1 PUSH2 0x100 EXP SWAP1 DIV PUSH20 0xFFFFFFFFFFFFFFFFFFFFFFFFFFFFFFFFFFFFFFFF AND DUP2 JUMP JUMPDEST PUSH1 0x2 SLOAD DUP2 JUMP JUMPDEST PUSH1 0x1 PUSH1 0x20 MSTORE DUP1 PUSH0 MSTORE PUSH1 0x40 PUSH0 KECCAK256 PUSH0 SWAP2 POP SWAP1 POP DUP1 PUSH0 ADD PUSH0 SWAP1 SLOAD SWAP1 PUSH2 0x100 EXP SWAP1 DIV PUSH20 0xFFFFFFFFFFFFFFFFFFFFFFFFFFFFFFFFFFFFFFFF AND SWAP1 DUP1 PUSH1 0x1 ADD PUSH0 SWAP1 SLOAD SWAP1 PUSH2 0x100 EXP SWAP1 DIV PUSH20 0xFFFFFFFFFFFFFFFFFFFFFFFFFFFFFFFFFFFFFFFF AND SWAP1 DUP1 PUSH1 0x2 ADD SLOAD SWAP1 DUP1 PUSH1 0x3 ADD SLOAD SWAP1 DUP1 PUSH1 0x4 ADD PUSH0 SWAP1 SLOAD SWAP1 PUSH2 0x100 EXP SWAP1 DIV PUSH1 0xFF AND SWAP1 DUP1 PUSH1 0x4 ADD PUSH1 0x1 SWAP1 SLOAD SWAP1 PUSH2 0x100 EXP SWAP1 DIV PUSH1 0xFF AND SWAP1 POP DUP7 JUMP JUMPDEST PUSH0 PUSH1 0x1 PUSH0 DUP4 DUP2 MSTORE PUSH1 0x20 ADD SWAP1 DUP2 MSTORE PUSH1 0x20 ADD PUSH0 KECCAK256 SWAP1 POP CALLER PUSH20 0xFFFFFFFFFFFFFFFFFFFFFFFFFFFFFFFFFFFFFFFF AND DUP2 PUSH0 ADD PUSH0 SWAP1 SLOAD SWAP1 PUSH2 0x100 EXP SWAP1 DIV PUSH20 0xFFFFFFFFFFFFFFFFFFFFFFFFFFFFFFFFFFFFFFFF AND PUSH20 0xFFFFFFFFFFFFFFFFFFFFFFFFFFFFFFFFFFFFFFFF AND EQ PUSH2 0x987 JUMPI PUSH1 0x40 MLOAD PUSH32 0x8C379A000000000000000000000000000000000000000000000000000000000 DUP2 MSTORE PUSH1 0x4 ADD PUSH2 0x97E SWAP1 PUSH2 0x12C3 JUMP JUMPDEST PUSH1 0x40 MLOAD DUP1 SWAP2 SUB SWAP1 REVERT JUMPDEST DUP1 PUSH1 0x4 ADD PUSH0 SWAP1 SLOAD SWAP1 PUSH2 0x100 EXP SWAP1 DIV PUSH1 0xFF AND ISZERO PUSH2 0x9D8 JUMPI PUSH1 0x40 MLOAD PUSH32 0x8C379A000000000000000000000000000000000000000000000000000000000 DUP2 MSTORE PUSH1 0x4 ADD PUSH2 0x9CF SWAP1 PUSH2 0x1351 JUMP JUMPDEST PUSH1 0x40 MLOAD DUP1 SWAP2 SUB SWAP1 REVERT JUMPDEST DUP1 PUSH1 0x4 ADD PUSH1 0x1 SWAP1 SLOAD SWAP1 PUSH2 0x100 EXP SWAP1 DIV PUSH1 0xFF AND ISZERO PUSH2 0xA2A JUMPI PUSH1 0x40 MLOAD PUSH32 0x8C379A000000000000000000000000000000000000000000000000000000000 DUP2 MSTORE PUSH1 0x4 ADD PUSH2 0xA21 SWAP1 PUSH2 0x13B9 JUMP JUMPDEST PUSH1 0x40 MLOAD DUP1 SWAP2 SUB SWAP1 REVERT JUMPDEST PUSH0 DUP1 SLOAD SWAP1 PUSH2 0x100 EXP SWAP1 DIV PUSH20 0xFFFFFFFFFFFFFFFFFFFFFFFFFFFFFFFFFFFFFFFF AND PUSH20 0xFFFFFFFFFFFFFFFFFFFFFFFFFFFFFFFFFFFFFFFF AND PUSH4 0xA9059CBB DUP3 PUSH1 0x1 ADD PUSH0 SWAP1 SLOAD SWAP1 PUSH2 0x100 EXP SWAP1 DIV PUSH20 0xFFFFFFFFFFFFFFFFFFFFFFFFFFFFFFFFFFFFFFFF AND DUP4 PUSH1 0x3 ADD SLOAD PUSH1 0x40 MLOAD DUP4 PUSH4 0xFFFFFFFF AND PUSH1 0xE0 SHL DUP2 MSTORE PUSH1 0x4 ADD PUSH2 0xAAB SWAP3 SWAP2 SWAP1 PUSH2 0xFD8 JUMP JUMPDEST PUSH1 0x20 PUSH1 0x40 MLOAD DUP1 DUP4 SUB DUP2 PUSH0 DUP8 GAS CALL ISZERO DUP1 ISZERO PUSH2 0xAC7 JUMPI RETURNDATASIZE PUSH0 DUP1 RETURNDATACOPY RETURNDATASIZE PUSH0 REVERT JUMPDEST POP POP POP POP PUSH1 0x40 MLOAD RETURNDATASIZE PUSH1 0x1F NOT PUSH1 0x1F DUP3 ADD AND DUP3 ADD DUP1 PUSH1 0x40 MSTORE POP DUP2 ADD SWAP1 PUSH2 0xAEB SWAP2 SWAP1 PUSH2 0x1029 JUMP JUMPDEST POP PUSH1 0x1 DUP2 PUSH1 0x4 ADD PUSH1 0x1 PUSH2 0x100 EXP DUP2 SLOAD DUP2 PUSH1 0xFF MUL NOT AND SWAP1 DUP4 ISZERO ISZERO MUL OR SWAP1 SSTORE POP PUSH32 0xD1F3779E629ABFCDE92C489A6A1077C9F2A0EF32F46E7AA06E8EDC4C4382F154 DUP3 PUSH1 0x40 MLOAD PUSH2 0xB38 SWAP2 SWAP1 PUSH2 0xCC1 JUMP JUMPDEST PUSH1 0x40 MLOAD DUP1 SWAP2 SUB SWAP1 LOG1 POP POP JUMP JUMPDEST PUSH0 DUP1 REVERT JUMPDEST PUSH0 PUSH20 0xFFFFFFFFFFFFFFFFFFFFFFFFFFFFFFFFFFFFFFFF DUP3 AND SWAP1 POP SWAP2 SWAP1 POP JUMP JUMPDEST PUSH0 PUSH2 0xB71 DUP3 PUSH2 0xB48 JUMP JUMPDEST SWAP1 POP SWAP2 SWAP1 POP JUMP JUMPDEST PUSH2 0xB81 DUP2 PUSH2 0xB67 JUMP JUMPDEST DUP2 EQ PUSH2 0xB8B JUMPI PUSH0 DUP1 REVERT JUMPDEST POP JUMP JUMPDEST PUSH0 DUP2 CALLDATALOAD SWAP1 POP PUSH2 0xB9C DUP2 PUSH2 0xB78 JUMP JUMPDEST SWAP3 SWAP2 POP POP JUMP JUMPDEST PUSH0 DUP2 SWAP1 POP SWAP2 SWAP1 POP JUMP JUMPDEST PUSH2 0xBB4 DUP2 PUSH2 0xBA2 JUMP JUMPDEST DUP2 EQ PUSH2 0xBBE JUMPI PUSH0 DUP1 REVERT JUMPDEST POP JUMP JUMPDEST PUSH0 DUP2 CALLDATALOAD SWAP1 POP PUSH2 0xBCF DUP2 PUSH2 0xBAB JUMP JUMPDEST SWAP3 SWAP2 POP POP JUMP JUMPDEST PUSH0 DUP1 PUSH1 0x40 DUP4 DUP6 SUB SLT ISZERO PUSH2 0xBEB JUMPI PUSH2 0xBEA PUSH2 0xB44 JUMP JUMPDEST JUMPDEST PUSH0 PUSH2 0xBF8 DUP6 DUP3 DUP7 ADD PUSH2 0xB8E JUMP JUMPDEST SWAP3 POP POP PUSH1 0x20 PUSH2 0xC09 DUP6 DUP3 DUP7 ADD PUSH2 0xBC1 JUMP JUMPDEST SWAP2 POP POP SWAP3 POP SWAP3 SWAP1 POP JUMP JUMPDEST PUSH0 PUSH1 0x20 DUP3 DUP5 SUB SLT ISZERO PUSH2 0xC28 JUMPI PUSH2 0xC27 PUSH2 0xB44 JUMP JUMPDEST JUMPDEST PUSH0 PUSH2 0xC35 DUP5 DUP3 DUP6 ADD PUSH2 0xBC1 JUMP JUMPDEST SWAP2 POP POP SWAP3 SWAP2 POP POP JUMP JUMPDEST PUSH0 DUP2 SWAP1 POP SWAP2 SWAP1 POP JUMP JUMPDEST PUSH0 PUSH2 0xC61 PUSH2 0xC5C PUSH2 0xC57 DUP5 PUSH2 0xB48 JUMP JUMPDEST PUSH2 0xC3E JUMP JUMPDEST PUSH2 0xB48 JUMP JUMPDEST SWAP1 POP SWAP2 SWAP1 POP JUMP JUMPDEST PUSH0 PUSH2 0xC72 DUP3 PUSH2 0xC47 JUMP JUMPDEST SWAP1 POP SWAP2 SWAP1 POP JUMP JUMPDEST PUSH0 PUSH2 0xC83 DUP3 PUSH2 0xC68 JUMP JUMPDEST SWAP1 POP SWAP2 SWAP1 POP JUMP JUMPDEST PUSH2 0xC93 DUP2 PUSH2 0xC79 JUMP JUMPDEST DUP3 MSTORE POP POP JUMP JUMPDEST PUSH0 PUSH1 0x20 DUP3 ADD SWAP1 POP PUSH2 0xCAC PUSH0 DUP4 ADD DUP5 PUSH2 0xC8A JUMP JUMPDEST SWAP3 SWAP2 POP POP JUMP JUMPDEST PUSH2 0xCBB DUP2 PUSH2 0xBA2 JUMP JUMPDEST DUP3 MSTORE POP POP JUMP JUMPDEST PUSH0 PUSH1 0x20 DUP3 ADD SWAP1 POP PUSH2 0xCD4 PUSH0 DUP4 ADD DUP5 PUSH2 0xCB2 JUMP JUMPDEST SWAP3 SWAP2 POP POP JUMP JUMPDEST PUSH2 0xCE3 DUP2 PUSH2 0xB67 JUMP JUMPDEST DUP3 MSTORE POP POP JUMP JUMPDEST PUSH0 DUP2 ISZERO ISZERO SWAP1 POP SWAP2 SWAP1 POP JUMP JUMPDEST PUSH2 0xCFD DUP2 PUSH2 0xCE9 JUMP JUMPDEST DUP3 MSTORE POP POP JUMP JUMPDEST PUSH0 PUSH1 0xC0 DUP3 ADD SWAP1 POP PUSH2 0xD16 PUSH0 DUP4 ADD DUP10 PUSH2 0xCDA JUMP JUMPDEST PUSH2 0xD23 PUSH1 0x20 DUP4 ADD DUP9 PUSH2 0xCDA JUMP JUMPDEST PUSH2 0xD30 PUSH1 0x40 DUP4 ADD DUP8 PUSH2 0xCB2 JUMP JUMPDEST PUSH2 0xD3D PUSH1 0x60 DUP4 ADD DUP7 PUSH2 0xCB2 JUMP JUMPDEST PUSH2 0xD4A PUSH1 0x80 DUP4 ADD DUP6 PUSH2 0xCF4 JUMP JUMPDEST PUSH2 0xD57 PUSH1 0xA0 DUP4 ADD DUP5 PUSH2 0xCF4 JUMP JUMPDEST SWAP8 SWAP7 POP POP POP POP POP POP POP JUMP JUMPDEST PUSH0 DUP3 DUP3 MSTORE PUSH1 0x20 DUP3 ADD SWAP1 POP SWAP3 SWAP2 POP POP JUMP JUMPDEST PUSH32 0x53657373696F6E20666565206D7573742062652067726561746572207468616E PUSH0 DUP3 ADD MSTORE PUSH32 0x2030000000000000000000000000000000000000000000000000000000000000 PUSH1 0x20 DUP3 ADD MSTORE POP JUMP JUMPDEST PUSH0 PUSH2 0xDCC PUSH1 0x22 DUP4 PUSH2 0xD62 JUMP JUMPDEST SWAP2 POP PUSH2 0xDD7 DUP3 PUSH2 0xD72 JUMP JUMPDEST PUSH1 0x40 DUP3 ADD SWAP1 POP SWAP2 SWAP1 POP JUMP JUMPDEST PUSH0 PUSH1 0x20 DUP3 ADD SWAP1 POP DUP2 DUP2 SUB PUSH0 DUP4 ADD MSTORE PUSH2 0xDF9 DUP2 PUSH2 0xDC0 JUMP JUMPDEST SWAP1 POP SWAP2 SWAP1 POP JUMP JUMPDEST PUSH32 0x596F752063616E6E6F7420626F6F6B20612073657373696F6E20776974682079 PUSH0 DUP3 ADD MSTORE PUSH32 0x6F757273656C6600000000000000000000000000000000000000000000000000 PUSH1 0x20 DUP3 ADD MSTORE POP JUMP JUMPDEST PUSH0 PUSH2 0xE5A PUSH1 0x27 DUP4 PUSH2 0xD62 JUMP JUMPDEST SWAP2 POP PUSH2 0xE65 DUP3 PUSH2 0xE00 JUMP JUMPDEST PUSH1 0x40 DUP3 ADD SWAP1 POP SWAP2 SWAP1 POP JUMP JUMPDEST PUSH0 PUSH1 0x20 DUP3 ADD SWAP1 POP DUP2 DUP2 SUB PUSH0 DUP4 ADD MSTORE PUSH2 0xE87 DUP2 PUSH2 0xE4E JUMP JUMPDEST SWAP1 POP SWAP2 SWAP1 POP JUMP JUMPDEST PUSH32 0x4E487B7100000000000000000000000000000000000000000000000000000000 PUSH0 MSTORE PUSH1 0x12 PUSH1 0x4 MSTORE PUSH1 0x24 PUSH0 REVERT JUMPDEST PUSH32 0x4E487B7100000000000000000000000000000000000000000000000000000000 PUSH0 MSTORE PUSH1 0x11 PUSH1 0x4 MSTORE PUSH1 0x24 PUSH0 REVERT JUMPDEST PUSH0 PUSH2 0xEF2 DUP3 PUSH2 0xBA2 JUMP JUMPDEST SWAP2 POP PUSH2 0xEFD DUP4 PUSH2 0xBA2 JUMP JUMPDEST SWAP3 POP DUP3 PUSH2 0xF0D JUMPI PUSH2 0xF0C PUSH2 0xE8E JUMP JUMPDEST JUMPDEST DUP3 DUP3 DIV SWAP1 POP SWAP3 SWAP2 POP POP JUMP JUMPDEST PUSH0 PUSH1 0x20 DUP3 ADD SWAP1 POP PUSH2 0xF2B PUSH0 DUP4 ADD DUP5 PUSH2 0xCDA JUMP JUMPDEST SWAP3 SWAP2 POP POP JUMP JUMPDEST PUSH0 DUP2 MLOAD SWAP1 POP PUSH2 0xF3F DUP2 PUSH2 0xBAB JUMP JUMPDEST SWAP3 SWAP2 POP POP JUMP JUMPDEST PUSH0 PUSH1 0x20 DUP3 DUP5 SUB SLT ISZERO PUSH2 0xF5A JUMPI PUSH2 0xF59 PUSH2 0xB44 JUMP JUMPDEST JUMPDEST PUSH0 PUSH2 0xF67 DUP5 DUP3 DUP6 ADD PUSH2 0xF31 JUMP JUMPDEST SWAP2 POP POP SWAP3 SWAP2 POP POP JUMP JUMPDEST PUSH32 0x496E73756666696369656E742062616C616E636520666F72206465706F736974 PUSH0 DUP3 ADD MSTORE POP JUMP JUMPDEST PUSH0 PUSH2 0xFA4 PUSH1 0x20 DUP4 PUSH2 0xD62 JUMP JUMPDEST SWAP2 POP PUSH2 0xFAF DUP3 PUSH2 0xF70 JUMP JUMPDEST PUSH1 0x20 DUP3 ADD SWAP1 POP SWAP2 SWAP1 POP JUMP JUMPDEST PUSH0 PUSH1 0x20 DUP3 ADD SWAP1 POP DUP2 DUP2 SUB PUSH0 DUP4 ADD MSTORE PUSH2 0xFD1 DUP2 PUSH2 0xF98 JUMP JUMPDEST SWAP1 POP SWAP2 SWAP1 POP JUMP JUMPDEST PUSH0 PUSH1 0x40 DUP3 ADD SWAP1 POP PUSH2 0xFEB PUSH0 DUP4 ADD DUP6 PUSH2 0xCDA JUMP JUMPDEST PUSH2 0xFF8 PUSH1 0x20 DUP4 ADD DUP5 PUSH2 0xCB2 JUMP JUMPDEST SWAP4 SWAP3 POP POP POP JUMP JUMPDEST PUSH2 0x1008 DUP2 PUSH2 0xCE9 JUMP JUMPDEST DUP2 EQ PUSH2 0x1012 JUMPI PUSH0 DUP1 REVERT JUMPDEST POP JUMP JUMPDEST PUSH0 DUP2 MLOAD SWAP1 POP PUSH2 0x1023 DUP2 PUSH2 0xFFF JUMP JUMPDEST SWAP3 SWAP2 POP POP JUMP JUMPDEST PUSH0 PUSH1 0x20 DUP3 DUP5 SUB SLT ISZERO PUSH2 0x103E JUMPI PUSH2 0x103D PUSH2 0xB44 JUMP JUMPDEST JUMPDEST PUSH0 PUSH2 0x104B DUP5 DUP3 DUP6 ADD PUSH2 0x1015 JUMP JUMPDEST SWAP2 POP POP SWAP3 SWAP2 POP POP JUMP JUMPDEST PUSH0 PUSH2 0x105E DUP3 PUSH2 0xBA2 JUMP JUMPDEST SWAP2 POP PUSH32 0xFFFFFFFFFFFFFFFFFFFFFFFFFFFFFFFFFFFFFFFFFFFFFFFFFFFFFFFFFFFFFFFF DUP3 SUB PUSH2 0x1090 JUMPI PUSH2 0x108F PUSH2 0xEBB JUMP JUMPDEST JUMPDEST PUSH1 0x1 DUP3 ADD SWAP1 POP SWAP2 SWAP1 POP JUMP JUMPDEST PUSH0 PUSH1 0x40 DUP3 ADD SWAP1 POP PUSH2 0x10AE PUSH0 DUP4 ADD DUP6 PUSH2 0xCB2 JUMP JUMPDEST PUSH2 0x10BB PUSH1 0x20 DUP4 ADD DUP5 PUSH2 0xCB2 JUMP JUMPDEST SWAP4 SWAP3 POP POP POP JUMP JUMPDEST PUSH32 0x4F6E6C7920746865207475746F722063616E20636F6D706C6574652074686520 PUSH0 DUP3 ADD MSTORE PUSH32 0x73657373696F6E00000000000000000000000000000000000000000000000000 PUSH1 0x20 DUP3 ADD MSTORE POP JUMP JUMPDEST PUSH0 PUSH2 0x111C PUSH1 0x27 DUP4 PUSH2 0xD62 JUMP JUMPDEST SWAP2 POP PUSH2 0x1127 DUP3 PUSH2 0x10C2 JUMP JUMPDEST PUSH1 0x40 DUP3 ADD SWAP1 POP SWAP2 SWAP1 POP JUMP JUMPDEST PUSH0 PUSH1 0x20 DUP3 ADD SWAP1 POP DUP2 DUP2 SUB PUSH0 DUP4 ADD MSTORE PUSH2 0x1149 DUP2 PUSH2 0x1110 JUMP JUMPDEST SWAP1 POP SWAP2 SWAP1 POP JUMP JUMPDEST PUSH32 0x53657373696F6E20616C726561647920636F6D706C6574656400000000000000 PUSH0 DUP3 ADD MSTORE POP JUMP JUMPDEST PUSH0 PUSH2 0x1184 PUSH1 0x19 DUP4 PUSH2 0xD62 JUMP JUMPDEST SWAP2 POP PUSH2 0x118F DUP3 PUSH2 0x1150 JUMP JUMPDEST PUSH1 0x20 DUP3 ADD SWAP1 POP SWAP2 SWAP1 POP JUMP JUMPDEST PUSH0 PUSH1 0x20 DUP3 ADD SWAP1 POP DUP2 DUP2 SUB PUSH0 DUP4 ADD MSTORE PUSH2 0x11B1 DUP2 PUSH2 0x1178 JUMP JUMPDEST SWAP1 POP SWAP2 SWAP1 POP JUMP JUMPDEST PUSH0 PUSH2 0x11C2 DUP3 PUSH2 0xBA2 JUMP JUMPDEST SWAP2 POP PUSH2 0x11CD DUP4 PUSH2 0xBA2 JUMP JUMPDEST SWAP3 POP DUP3 DUP3 SUB SWAP1 POP DUP2 DUP2 GT ISZERO PUSH2 0x11E5 JUMPI PUSH2 0x11E4 PUSH2 0xEBB JUMP JUMPDEST JUMPDEST SWAP3 SWAP2 POP POP JUMP JUMPDEST PUSH32 0x496E73756666696369656E7420636F6E74726163742062616C616E6365000000 PUSH0 DUP3 ADD MSTORE POP JUMP JUMPDEST PUSH0 PUSH2 0x121F PUSH1 0x1D DUP4 PUSH2 0xD62 JUMP JUMPDEST SWAP2 POP PUSH2 0x122A DUP3 PUSH2 0x11EB JUMP JUMPDEST PUSH1 0x20 DUP3 ADD SWAP1 POP SWAP2 SWAP1 POP JUMP JUMPDEST PUSH0 PUSH1 0x20 DUP3 ADD SWAP1 POP DUP2 DUP2 SUB PUSH0 DUP4 ADD MSTORE PUSH2 0x124C DUP2 PUSH2 0x1213 JUMP JUMPDEST SWAP1 POP SWAP2 SWAP1 POP JUMP JUMPDEST PUSH32 0x4F6E6C7920746865207475746F722063616E206973737565206120726566756E PUSH0 DUP3 ADD MSTORE PUSH32 0x6400000000000000000000000000000000000000000000000000000000000000 PUSH1 0x20 DUP3 ADD MSTORE POP JUMP JUMPDEST PUSH0 PUSH2 0x12AD PUSH1 0x21 DUP4 PUSH2 0xD62 JUMP JUMPDEST SWAP2 POP PUSH2 0x12B8 DUP3 PUSH2 0x1253 JUMP JUMPDEST PUSH1 0x40 DUP3 ADD SWAP1 POP SWAP2 SWAP1 POP JUMP JUMPDEST PUSH0 PUSH1 0x20 DUP3 ADD SWAP1 POP DUP2 DUP2 SUB PUSH0 DUP4 ADD MSTORE PUSH2 0x12DA DUP2 PUSH2 0x12A1 JUMP JUMPDEST SWAP1 POP SWAP2 SWAP1 POP JUMP JUMPDEST PUSH32 0x43616E6E6F7420726566756E642061667465722073657373696F6E20636F6D70 PUSH0 DUP3 ADD MSTORE PUSH32 0x6C6574696F6E0000000000000000000000000000000000000000000000000000 PUSH1 0x20 DUP3 ADD MSTORE POP JUMP JUMPDEST PUSH0 PUSH2 0x133B PUSH1 0x26 DUP4 PUSH2 0xD62 JUMP JUMPDEST SWAP2 POP PUSH2 0x1346 DUP3 PUSH2 0x12E1 JUMP JUMPDEST PUSH1 0x40 DUP3 ADD SWAP1 POP SWAP2 SWAP1 POP JUMP JUMPDEST PUSH0 PUSH1 0x20 DUP3 ADD SWAP1 POP DUP2 DUP2 SUB PUSH0 DUP4 ADD MSTORE PUSH2 0x1368 DUP2 PUSH2 0x132F JUMP JUMPDEST SWAP1 POP SWAP2 SWAP1 POP JUMP JUMPDEST PUSH32 0x53657373696F6E20616C726561647920726566756E6465640000000000000000 PUSH0 DUP3 ADD MSTORE POP JUMP JUMPDEST PUSH0 PUSH2 0x13A3 PUSH1 0x18 DUP4 PUSH2 0xD62 JUMP JUMPDEST SWAP2 POP PUSH2 0x13AE DUP3 PUSH2 0x136F JUMP JUMPDEST PUSH1 0x20 DUP3 ADD SWAP1 POP SWAP2 SWAP1 POP JUMP JUMPDEST PUSH0 PUSH1 0x20 DUP3 ADD SWAP1 POP DUP2 DUP2 SUB PUSH0 DUP4 ADD MSTORE PUSH2 0x13D0 DUP2 PUSH2 0x1397 JUMP JUMPDEST SWAP1 POP SWAP2 SWAP1 POP JUMP INVALID LOG2 PUSH5 0x6970667358 0x22 SLT KECCAK256 0xC3 SHR 0xDD 0xE 0xD8 MUL MUL ADDRESS 0xAA GASPRICE 0x27 PUSH9 0x302432A644A9A63E3D 0x21 0x2A 0xF8 SWAP4 SWAP15 SGT SWAP7 CODECOPY SMOD DUP7 PUSH12 0x64736F6C634300081A003300 "
				},
				"gasEstimates": {
					"creation": {
						"codeDepositCost": "1026600",
						"executionCost": "infinite",
						"totalCost": "infinite"
					},
					"external": {
						"bookSession(address,uint256)": "infinite",
						"completeSession(uint256)": "infinite",
						"paymentToken()": "infinite",
						"refundSession(uint256)": "infinite",
						"sessionIdCounter()": "2469",
						"sessions(uint256)": "infinite"
					}
				},
				"methodIdentifiers": {
					"bookSession(address,uint256)": "01c7aea4",
					"completeSession(uint256)": "1f5754c0",
					"paymentToken()": "3013ce29",
					"refundSession(uint256)": "9b9aee77",
					"sessionIdCounter()": "5a29352d",
					"sessions(uint256)": "83c4b7a3"
				}
			},
			"storageLayout": {
				"storage": [
					{
						"astId": 21,
						"contract": "project-42/contracts/contract.sol:OnChainTutoring",
						"label": "paymentToken",
						"offset": 0,
						"slot": "0",
						"type": "t_contract(IERC20)18"
					},
					{
						"astId": 39,
						"contract": "project-42/contracts/contract.sol:OnChainTutoring",
						"label": "sessions",
						"offset": 0,
						"slot": "1",
						"type": "t_mapping(t_uint256,t_struct(TutoringSession)34_storage)"
					},
					{
						"astId": 59,
						"contract": "project-42/contracts/contract.sol:OnChainTutoring",
						"label": "sessionIdCounter",
						"offset": 0,
						"slot": "2",
						"type": "t_uint256"
					}
				],
				"types": {
					"t_address": {
						"encoding": "inplace",
						"label": "address",
						"numberOfBytes": "20"
					},
					"t_bool": {
						"encoding": "inplace",
						"label": "bool",
						"numberOfBytes": "1"
					},
					"t_contract(IERC20)18": {
						"encoding": "inplace",
						"label": "contract IERC20",
						"numberOfBytes": "20"
					},
					"t_mapping(t_uint256,t_struct(TutoringSession)34_storage)": {
						"encoding": "mapping",
						"key": "t_uint256",
						"label": "mapping(uint256 => struct OnChainTutoring.TutoringSession)",
						"numberOfBytes": "32",
						"value": "t_struct(TutoringSession)34_storage"
					},
					"t_struct(TutoringSession)34_storage": {
						"encoding": "inplace",
						"label": "struct OnChainTutoring.TutoringSession",
						"members": [
							{
								"astId": 23,
								"contract": "project-42/contracts/contract.sol:OnChainTutoring",
								"label": "tutor",
								"offset": 0,
								"slot": "0",
								"type": "t_address"
							},
							{
								"astId": 25,
								"contract": "project-42/contracts/contract.sol:OnChainTutoring",
								"label": "student",
								"offset": 0,
								"slot": "1",
								"type": "t_address"
							},
							{
								"astId": 27,
								"contract": "project-42/contracts/contract.sol:OnChainTutoring",
								"label": "sessionFee",
								"offset": 0,
								"slot": "2",
								"type": "t_uint256"
							},
							{
								"astId": 29,
								"contract": "project-42/contracts/contract.sol:OnChainTutoring",
								"label": "deposit",
								"offset": 0,
								"slot": "3",
								"type": "t_uint256"
							},
							{
								"astId": 31,
								"contract": "project-42/contracts/contract.sol:OnChainTutoring",
								"label": "isCompleted",
								"offset": 0,
								"slot": "4",
								"type": "t_bool"
							},
							{
								"astId": 33,
								"contract": "project-42/contracts/contract.sol:OnChainTutoring",
								"label": "isRefunded",
								"offset": 1,
								"slot": "4",
								"type": "t_bool"
							}
						],
						"numberOfBytes": "160"
					},
					"t_uint256": {
						"encoding": "inplace",
						"label": "uint256",
						"numberOfBytes": "32"
					}
				}
			},
			"userdoc": {
				"kind": "user",
				"methods": {},
				"version": 1
			}
		}
	}
}